:020000040800F2
:1000000000000120B90F00080109000807090008D5
:100010000D09000813090008190900080000000074
:100020000000000000000000000000001F090008A0
:100030002D090008000000003B09000849090008DC
:10004000091000080910000809100008091000082C
:10005000091000080910000809100008091000081C
:10006000091000080910000809100008091000080C
:1000700009100008091000080910000809100008FC
:10008000091000080910000809100008000000000D
:1000900000000000000000000000000055090008FA
:1000A00009100008091000080910000809100008CC
:1000B00009100008091000080910000809100008BC
:1000C00009100008091000080910000809100008AC
:1000D00009100008091000080910000800000000BD
:1000E00009100008091000080910000800000000AD
:1000F00000000000000000000000000009100008DF
:10010000000000000910000809100008091000088C
:1001100000000000000000000000000000000000DF
:10012000091000080910000809100008091000084B
:10013000091000080000000000000000000000009E
:10014000000000000000000000000000091000088E
:10015000091000080910000809100008091000081B
:10016000091000080910000800000000000000004D
:10017000000000000000000000000000000000007F
:10018000000000000910000800000000000000004E
:04019000091000084A
:1001940010B5054C237833B9044B13B10448AFF3BD
:1001A40000800123237010BD0C000020000000001B
:1001B400C833000808B5034B1BB103490348AFF328
:1001C400008008BD0000000010000020C8330008B3
:1001D40053B94AB9002908BF00281CBF4FF0FF31AA
:1001E4004FF0FF3000F070B9ADF1080C6DE904CEAA
:1001F40000F006F8DDF804E0DDE9022304B07047FE
:100204002DE9F047089E0D4604460F46002B4AD1BF
:100214008A42944665D9B2FA82F343B102FA03FCE6
:10022400C3F120029F4020FA02F217439C404FEA98
:100234001C4E1FFA8CF5B7FBFEF1220C0EFB117756
:1002440042EA074201FB05F090420AD91CEB020284
:1002540001F1FF3780F01C81904240F2198102398C
:100264006244121AA4B2B2FBFEF00EFB102244EA5E
:10027400024400FB05F5A5420AD91CEB040400F175
:10028400FF3280F00781A54240F2048164440238C1
:1002940040EA0140641B00211EB1DC400023C6E992
:1002A4000043BDE8F0878B4208D9002E00F0ED80B2
:1002B4000021C6E900050846BDE8F087B3FA83F1DA
:1002C400002949D1AB4202D3824200F2F880841A59
:1002D40065EB030201201746002EE2D0C6E9004771
:1002E400DFE702B9FFDEB2FA82F3002B40F0908020
:1002F4008A1A4FEA1C471FFA8CFE0121B2FBF7F55C
:1003040007FB1520220C42EA00420EFB05F0904246
:1003140008D91CEB020205F1FF3802D2904200F228
:10032400CB804546121AA4B2B2FBF7F007FB1022A9
:1003340044EA02440EFB00FEA64508D91CEB040463
:1003440000F1FF3202D2A64500F2BB801046A4EBB6
:100354000E0440EA05409FE7C1F120078B4022FAD2
:1003640007FC4CEA030C05FA01F420FA07F3FD40FC
:100374004FEA1C492343B5FBF9F81FFA8CFE09FB2D
:1003840018551C0C44EA054408FB0EF5A54202FA74
:1003940001F200FA01F00BD91CEB040408F1FF3A56
:1003A40080F08880A54240F28580A8F10208644468
:1003B400641B9DB2B4FBF9F309FB134445EA0444FE
:1003C40003FB0EFEA64508D91CEB040403F1FF351C
:1003D4006CD2A6456AD9023B644443EA0843A3FBB2
:1003E4000295A4EB0E04AC42C846AE4656D353D095
:1003F40056B1B0EB080264EB0E0404FA07F7CA40E6
:10040400CC401743C6E9007418460021BDE8F087C4
:10041400C3F1200102FA03FC20FA01F225FA01F1EA
:100424009D402A434FEA1C471FFA8CFEB1FBF7F0AC
:1004340007FB1015110C41EA054100FB0EF58D4236
:1004440004FA03F408D91CEB010100F1FF382FD2A0
:100454008D422DD902386144491B92B2B1FBF7F5A4
:1004640007FB151142EA014205FB0EF1914208D93E
:100474001CEB020205F1FF3816D2914214D9023D59
:100484006244521A45EA004138E73146304608E7EB
:100494003946E6E61046FBE64845A9D2B9EB020820
:1004A40065EB0C0E013BA3E74546EAE72B4694E7D0
:1004B4004046D1E7D0467BE7023D624432E7084636
:1004C4000AE76444023842E7704700BF80B588B049
:1004D40000AF07F10C0300221A605A609A60DA60D8
:1004E4001A610023BB60424B1B6B414A43F0040377
:1004F40013633F4B1B6B03F00403BB60BB68002317
:100504007B603B4B1B6B3A4A43F001031363384B4C
:100514001B6B03F001037B607B6800233B60344B5F
:100524001B6B334A43F002031363314B1B6B03F021
:1005340002033B603B6801224FF400512D4801F057
:100544008FF8002201212C4801F08AF800224FF490
:1005540080512A4801F084F801224FF400512748C1
:1005640001F07EF84FF40053FB6001233B6100234C
:100574007B610023BB6107F10C0319461D4800F0A1
:10058400EBFE0123FB6001233B6100237B6103231A
:10059400BB6107F10C031946174800F0DDFE4FF468
:1005A4004053FB6001233B6100237B610223BB6159
:1005B40007F10C031946114800F0CEFE4FF4807386
:1005C400FB604FF404133B6100237B6107F10C03D0
:1005D4001946094800F0C0FE00220021172000F04F
:1005E40084FE172000F09DFE00BF2037BD4680BD6D
:1005F40000380240000802400000024000040240AB
:1006040080B500AF00F000FD00F054F8FFF75EFF86
:1006140000F0CEF800F0B6F9002140F6C41000F066
:10062400A7FA1F4B1B78DBB2012B35D14FF4FA63C9
:1006340008221C491C4802F0DDFA4FF4FA63052233
:100644001A49194802F0D6FA164B1B78002B20D110
:10065400144B5B78012B1CD1124B9B78022B18D1C5
:10066400104BDB78032B14D10E4B1B79042B10D1C8
:100674000C4B5B79052B0CD10A4B9B79062B08D1CB
:10068400084BDB79072B04D101220121084800F033
:10069400E7FF034B00221A70642000F027FDC0E737
:1006A400280000202C0000208C000020E0330008EB
:1006B4000000024080B594B000AF07F1200330225F
:1006C4000021184602F052FE07F10C0300221A60C2
:1006D4005A609A60DA601A610023BB60234B1B6C7A
:1006E400224A43F080531364204B1B6C03F0805365
:1006F400BB60BB6800237B601D4B1B6823F4404335
:100704001B4A43F400431360194B1B6803F4404332
:100714007B607B6802233B620123FB6210233B6303
:100724000023BB6307F12003184600F0E5FF0346EE
:10073400002B01D000F036F80F23FB6000233B614F
:1007440000237B614FF48053BB610023FB6107F1FD
:100754000C030021184601F047FA0346002B01D090
:1007640000F020F800BF5037BD4680BD003802407D
:100774000070004080B582B000AF0346FB80FB8868
:10078400B3F5807F05D1054800F020FA044B01221F
:100794001A7000BF0837BD4680BD00BF2C00002082
:1007A4002800002080B400AF72B600BFFEE700004E
:1007B40080B500AF174B184A1A60164B4FF482727B
:1007C4005A60144B00229A60124B0022DA60114BDB
:1007D40000221A610F4B00225A610E4B4FF4007233
:1007E4009A610C4B1022DA610A4B00221A62094BFF
:1007F40000225A62074B00229A62064B0A22DA62EE
:10080400044801F0D1FB0346002B01D0FFF7CAFFD7
:1008140000BF80BD340000200038004080B58AB09D
:1008240000AF786007F1140300221A605A609A60DE
:10083400DA601A617B681B68194A93422CD1002341
:100844003B61184B1B6C174A43F480431364154BEC
:100854001B6C03F480433B613B690023FB60114B39
:100864001B6B104A43F0020313630E4B1B6B03F024
:100874000203FB60FB684FF444437B610223BB61CA
:100884000023FB6103233B6205237B6207F114030E
:100894001946054800F060FD00BF2837BD4680BDFD
:1008A40000380040003802400004024080B483B0A5
:1008B40000AF00237B60104B5B6C0F4A43F4804312
:1008C40053640D4B5B6C03F480437B607B680023B3
:1008D4003B60094B1B6C084A43F080531364064B7E
:1008E4001B6C03F080533B603B6800BF0C37BD4674
:1008F4005DF8047B704700BF0038024080B400AF4D
:10090400FEE780B400AFFEE780B400AFFEE780B43A
:1009140000AFFEE780B400AFFEE780B400AF00BFD5
:10092400BD465DF8047B704780B400AF00BFBD4690
:100934005DF8047B704780B400AF00BFBD465DF82E
:10094400047B704780B500AF00F0B0FB00BF80BDF2
:1009540080B500AF4FF4807000F0B6FE00BF80BDDC
:1009640080B400AF064BD3F88830054A43F47003D3
:10097400C2F8883000BFBD465DF8047B704700BFF5
:1009840000ED00E080B500AF114B124A1A60104B25
:100994004FF4E1325A600E4B00229A600C4B002255
:1009A400DA600B4B00221A61094B0C225A61084B86
:1009B40000229A61064B0022DA61054802F0CAF867
:1009C4000346002B01D0FFF7EDFE00BF80BD00BF42
:1009D4008C0000200010014080B58AB000AF786020
:1009E40007F1140300221A605A609A60DA601A61EF
:1009F4007B681B68194A93422CD100233B61184B36
:100A04005B6C174A43F010035364154B5B6C03F0A3
:100A140010033B613B690023FB60114B1B6B104AC5
:100A240043F0010313630E4B1B6B03F00103FB60E4
:100A3400FB684FF4C0637B610223BB610023FB614D
:100A440003233B6207237B6207F11403194605481D
:100A540000F082FC00BF2837BD4680BD0010014075
:100A6400003802400000024080B500AF01224FF47C
:100A74000051024800F0F4FD00BF80BD00040240B4
:100A840080B500AF00224FF40051024800F0E8FDA9
:100A940000BF80BD0004024080B500AF01224FF4C6
:100AA4008051024800F0DCFD00BF80BD000402401C
:100AB40080B500AF00224FF48051024800F0D0FD11
:100AC40000BF80BD0004024080B586B002AF03467B
:100AD400FB71FB79FB73FFF7D3FF07F10E0207F1FC
:100AE4000F014FF4FA6300930123094801F040FD1C
:100AF40007F10D014FF4FA630122054801F020FCCF
:100B0400FFF7B2FF7B7B18461037BD4680BD00BFA0
:100B14003400002080B586B002AF03460A46FB715C
:100B24001346BB71FB7943F02003DBB2FB73BB7943
:100B34007B73FFF7A5FF07F10E0207F10F014FF4D6
:100B4400FA6300930123094801F012FD07F10D0136
:100B54004FF4FA630122054801F0AFFAFFF784FF6E
:100B64007B7B18461037BD4680BD00BF3400002093
:100B740080B582B000AF03460A46FB8013467B7102
:100B840000F038F800F08AF800F02EF9082000F0A0
:100B940009F9FB88184600F0B3F97B79184600F090
:100BA400DFF9032000F0BFF9012000F032F905203D
:100BB40000F052F9032000F05FF9FA2000F078F910
:100BC400FFF76AFF00BF0837BD4680BD80B582B01D
:100BD40000AF7860786800F077F800F0F1F84FF42F
:100BE4000051034800F055FD00BF0837BD4680BDE5
:100BF4000008024080B500AFFFF736FFFFF758FF4B
:100C040008210020FFF786FF3F210120FFF782FF24
:100C140003210220FFF77EFF03210320FFF77AFF61
:100C240003210420FFF776FF02210520FFF772FF5E
:100C340007210620FFF76EFF7E210720FFF76AFFDA
:100C440000211120FFF766FF00211120FFF762FF4A
:100C540000211220FFF75EFF00211320FFF75AFF47
:100C640000211420FFF756FF00211520FFF752FF43
:100C740000211620FFF74EFF11211720FFF74AFF2E
:100C840000211C20FFF746FF00211D20FFF742FF33
:100C940000F03EF800F054F800BF80BD80B582B08B
:100CA40000AF0020FFF710FF0346FB71FB7943F010
:100CB4000103FB71FB7919460020FFF72BFF00BFEE
:100CC4000837BD4680BD000080B586B002AF7860AD
:100CD4006123FB73FFF7D4FE07F10E0207F10F0146
:100CE4004FF4FA6300930123084801F041FC4FF4E8
:100CF400FA6308227968054801F022FBFFF7B4FE85
:100D0400BB7B18461037BD4680BD00BF34000020B1
:100D140080B584B002AFE223FB71FFF7B1FEBA1DC8
:100D2400F91D4FF4FA6300930123044801F020FCF9
:100D3400FFF79AFE00BF0837BD4680BD340000208F
:100D440080B584B002AFE123FB71FFF799FEBA1DB1
:100D5400F91D4FF4FA6300930123044801F008FCE1
:100D6400FFF782FE00BF0837BD4680BD3400002077
:100D740080B584B002AFFF23FB71FFF781FEBA1D7B
:100D8400F91D4FF4FA6300930123054801F0F0FBC9
:100D9400FFF76AFEBB7918460837BD4680BD00BF21
:100DA4003400002080B582B000AF0346FB71FB79AC
:100DB40019461120FFF7AEFE00BF0837BD4680BDBF
:100DC40080B582B000AFFFF7D3FF0346FB71FB7918
:100DD40043F04003FB71FB7919460720FFF79AFEA5
:100DE40000BF0837BD4680BD80B582B000AF00208B
:100DF400FFF76AFE0346FB71FB7943F00203FB71C4
:100E0400FB7919460020FFF785FE00BF0837BD4671
:100E140080BD80B584B000AF0346FB710020FFF7AE
:100E240053FE0346FB73FB79012B02D0022B05D042
:100E340009E0FB7B23F00403FB7304E0FB7B43F03A
:100E44000403FB7300BFFB7B19460020FFF762FE1F
:100E540000BF1037BD4680BD80B582B000AF0346E9
:100E6400FB71FB79023BDBB219460320FFF752FE0C
:100E740000BF0837BD4680BD80B584B000AF0346CF
:100E8400FB710420FFF720FE0346FB73FB7B63F03A
:100E94000F03FB73FA7BFB791343FB73FB7B19464C
:100EA4000420FFF737FE00BF1037BD4680BD0000A9
:100EB40080B584B000AF0346FB800420FFF704FE36
:100EC4000346FB73FB7B43F00F03FB73FB880B4A66
:100ED400A2FB03231B099BB2013B1B015AB297F9E6
:100EE4000F3013435BB2FB73FB7B19460420FFF7FF
:100EF40011FE00BF1037BD4680BD00BFD34D621048
:100F040080B584B000AF0346FB80FB88A3F516636D
:100F1400FB81FB89DBB219460520FFF7FBFD00BF0F
:100F24001037BD4680BD80B584B000AF0346FB7169
:100F34000620FFF7C9FD034623F00603FB73FB7984
:100F44005B005AB297F90F3013435BB2FB73FB7B20
:100F540019460620FFF7DEFD00BF1037BD4680BDF1
:100F640080B584B000AF0346FB710620FFF7ACFDEB
:100F7400034623F02803FB73FB79022B0AD0022BD0
:100F84000EDC002B0BD0012B0AD1FB7B43F00803B2
:100F9400FB7305E0FB7B43F02003FB7300E000BF21
:100FA400FB7B19460620FFF7B5FD00BF1037BD4691
:100FB40080BD0000DFF834D0FFF7D2FC0C480D49A7
:100FC4000D4A002302E0D458C4500433C4188C42A0
:100FD400F9D30A4A0A4C002301E013600432A24206
:100FE400FBD302F0CBF9FFF70BFB704700000120A5
:100FF400000000200C0000200C3400080C0000202D
:10100400D8000020FEE7000080B500AF0E4B1B683F
:101014000D4A43F4007313600B4B1B680A4A43F4F4
:1010240080631360084B1B68074A43F480731360A2
:10103400032000F04FF9002000F008F8FFF736FC19
:101044000023184680BD00BF003C024080B582B03A
:1010540000AF7860124B1A68124B1B7819464FF494
:101064007A73B3FBF1F3B2FBF3F3184600F067F9BC
:101074000346002B01D001230EE07B680F2B0AD816
:10108400002279684FF0FF3000F02FF9064A7B68A0
:101094001360002300E0012318460837BD4680BDD5
:1010A40000000020080000200400002080B400AFED
:1010B400064B1B781A46064B1B681344044A1360FC
:1010C40000BFBD465DF8047B704700BF08000020E8
:1010D400D400002080B400AF034B1B681846BD4603
:1010E4005DF8047B704700BFD400002080B584B055
:1010F40000AF7860FFF7EEFFB8607B68FB60FB68C9
:10110400B3F1FF3F05D00A4B1B781A46FB68134422
:10111400FB6000BFFFF7DEFF0246BB68D31AFA6824
:101124009A42F7D800BF00BF1037BD4680BD00BF4C
:101134000800002080B485B000AF78607B6803F0BD
:101144000703FB600C4BDB68BB60BA684FF6FF0318
:101154001340BB60FB681A02BB68134343F0BF63D0
:1011640043F40033BB60044ABB68D36000BF143748
:10117400BD465DF8047B704700ED00E080B400AF2D
:10118400044BDB681B0A03F007031846BD465DF8F1
:10119400047B704700ED00E080B483B000AF0346E9
:1011A400FB7197F90730002B0BDBFB7903F01F026F
:1011B400074997F907305B09012000FA02F241F868
:1011C400232000BF0C37BD465DF8047B704700BF89
:1011D40000E100E080B483B000AF03463960FB71E6
:1011E40097F90730002B0ADB3B68DAB20C4997F910
:1011F40007301201D2B20B4483F800230AE03B68A3
:10120400DAB20849FB7903F00F03043B1201D2B2AE
:101214000B441A7600BF0C37BD465DF8047B70475B
:1012240000E100E000ED00E080B489B000AFF860B8
:10123400B9607A60FB6803F00703FB61FB69C3F1E3
:101244000703042B28BF0423BB61FB690433062B6B
:1012540002D9FB69033B00E000237B614FF0FF32BE
:10126400BB6902FA03F3DA43BB681A407B699A400C
:101274004FF0FF317B6901FA03F3D9437B680B40DC
:10128400134318462437BD465DF8047B70470000BD
:1012940080B582B000AF78607B68013BB3F1807F9A
:1012A40001D301230FE00A4A7B68013B53600F21FD
:1012B4004FF0FF30FFF78EFF054B00229A60044B7E
:1012C40007221A60002318460837BD4680BD00BFB8
:1012D40010E000E080B582B000AF78607868FFF776
:1012E40029FF00BF0837BD4680BD80B586B000AF7A
:1012F4000346B9607A60FB7300237B61FFF73EFF0E
:1013040078617A68B9687869FFF78EFF024697F9C1
:101314000F3011461846FFF75DFF00BF1837BD4672
:1013240080BD80B582B000AF0346FB7197F90730EA
:101334001846FFF731FF00BF0837BD4680BD80B5B2
:1013440082B000AF78607868FFF7A2FF03461846C2
:101354000837BD4680BD000080B489B000AF786016
:10136400396000237B6100233B610023BB610023C0
:10137400FB6159E10122FB6902FA03F37B613B68DB
:101384001B687A6913403B613A697B699A4240F071
:1013940048813B685B6803F00303012B05D03B687D
:1013A4005B6803F00303022B30D17B689B68BB614D
:1013B400FB695B00032202FA03F3DB43BA691340BF
:1013C400BB613B68DA68FB695B0002FA03F3BA6944
:1013D4001343BB617B68BA699A607B685B68BB61D5
:1013E4000122FB6902FA03F3DB43BA691340BB61D0
:1013F4003B685B681B0903F00102FB6902FA03F313
:10140400BA691343BB617B68BA695A603B685B681D
:1014140003F00303032B17D07B68DB68BB61FB6914
:101424005B00032202FA03F3DB43BA691340BB6196
:101434003B689A68FB695B0002FA03F3BA691343D9
:10144400BB617B68BA69DA603B685B6803F00303DD
:10145400022B23D1FB69DA087B68083253F8223067
:10146400BB61FB6903F007039B000F2202FA03F33D
:10147400DB43BA691340BB613B681A69FB6903F03B
:1014840007039B0002FA03F3BA691343BB61FB69C8
:10149400DA087B680832B96943F822107B681B6854
:1014A400BB61FB695B00032202FA03F3DB43BA6905
:1014B4001340BB613B685B6803F00302FB695B009C
:1014C40002FA03F3BA691343BB617B68BA691A6011
:1014D4003B685B6803F44033002B00F0A2800023D8
:1014E400FB60574B5B6C564A43F480435364544B44
:1014F4005B6C03F48043FB60FB68524AFB699B0806
:10150400023352F82330BB61FB6903F003039B00F1
:101514000F2202FA03F3DB43BA691340BB617B6811
:10152400494A934219D07B68484A934213D07B6856
:10153400474A93420DD07B68464A934207D07B6862
:10154400454A934201D1042308E0072306E003231C
:1015540004E0022302E0012300E00023FA6902F020
:10156400030292009340BA691343BB613549FB6996
:101574009B080233BA6941F82320384B9B68BB614E
:101584003B69DB43BA691340BB613B685B6803F4A6
:101594008013002B03D0BA693B691343BB612F4A04
:1015A400BB6993602D4BDB68BB613B69DB43BA6964
:1015B4001340BB613B685B6803F40013002B03D04A
:1015C400BA693B691343BB61244ABB69D360234BAB
:1015D4005B68BB613B69DB43BA691340BB613B6831
:1015E4005B6803F40033002B03D0BA693B691343EF
:1015F400BB611A4ABB695360184B1B68BB613B69EA
:10160400DB43BA691340BB613B685B6803F4803316
:10161400002B03D0BA693B691343BB610F4ABB6912
:101624001360FB690133FB61FB690F2B7FF6A2AEEC
:1016340000BF00BF2437BD465DF8047B704700BF80
:10164400003802400038014000000240000402401B
:1016540000080240000C024000100240003C01401F
:1016640080B483B000AF78600B467B8013467B70F8
:101674007B78002B03D07A887B689A6103E07B88AF
:101684001A047B689A6100BF0C37BD465DF8047B81
:10169400704780B485B000AF78600B467B807B6870
:1016A4005B69FB607A88FB6813401A04FB68D943C2
:1016B4007B880B401A437B689A6100BF1437BD4690
:1016C4005DF8047B7047000080B582B000AF03462C
:1016D400FB80084B5A69FB881340002B06D0054A4F
:1016E400FB885361FB881846FFF744F800BF0837AE
:1016F400BD4680BD003C014080B586B000AF786037
:101704007B68002B01D1012367E27B681B6803F02F
:101714000103002B75D0884B9B6803F00C03042B4A
:101724000CD0854B9B6803F00C03082B12D1824B21
:101734005B6803F48003B3F5800F0BD17E4B1B6809
:1017440003F40033002B5BD07B685B68002B57D11C
:10175400012342E27B685B68B3F5803F06D1764B98
:101764001B68754A43F4803313601DE07B685B6833
:10177400B3F5A02F0CD1704B1B686F4A43F4802340
:1017840013606D4B1B686C4A43F4803313600BE0A9
:10179400694B1B68684A23F480331360664B1B68EB
:1017A400654A23F4802313607B685B68002B13D0A5
:1017B400FFF790FC386108E0FFF78CFC02463B69B8
:1017C400D31A642B01D9032307E25B4B1B6803F490
:1017D4000033002BF0D014E0FFF77CFC386108E004
:1017E400FFF778FC02463B69D31A642B01D9032323
:1017F400F3E1514B1B6803F40033002BF0D100E0FC
:1018040000BF7B681B6803F00203002B63D04A4BC4
:101814009B6803F00C03002B0BD0474B9B6803F031
:101824000C03082B1CD1444B5B6803F48003002B8E
:1018340016D1414B1B6803F00203002B05D07B68D3
:10184400DB68012B01D00123C7E13B4B1B6823F06C
:10185400F8027B681B69DB00374913430B603AE0ED
:101864007B68DB68002B20D0344B01221A60FFF721
:1018740031FC386108E0FFF72DFC02463B69D31ABE
:10188400022B01D90323A8E12B4B1B6803F00203AD
:10189400002BF0D0284B1B6823F0F8027B681B69EF
:1018A400DB00254913430B6015E0244B00221A602A
:1018B400FFF710FC386108E0FFF70CFC02463B69B7
:1018C400D31A022B01D9032387E11B4B1B6803F0B6
:1018D4000203002BF0D17B681B6803F00803002B84
:1018E40036D07B685B69002B16D0154B01221A6039
:1018F400FFF7F0FB386108E0FFF7ECFB02463B69B9
:10190400D31A022B01D9032367E10B4B5B6F03F05E
:101914000203002BF0D01BE0094B00221A60FFF7F2
:10192400D9FB38610EE0FFF7D5FB02463B69D31AB9
:10193400022B07D9032350E100380240000047423C
:10194400800E4742884B5B6F03F00203002BEAD101
:101954007B681B6803F00403002B00F097800023CE
:10196400FB75814B1B6C03F08053002B0FD10023BC
:10197400BB607D4B1B6C7C4A43F0805313647A4BF1
:101984001B6C03F08053BB60BB680123FB75774B72
:101994001B6803F48073002B18D1744B1B68734AC3
:1019A40043F480731360FFF795FB386108E0FFF799
:1019B40091FB02463B69D31A022B01D903230CE1A4
:1019C4006A4B1B6803F48073002BF0D07B689B6820
:1019D400012B06D1644B1B6F634A43F00103136769
:1019E4001CE07B689B68052B0CD15F4B1B6F5E4A28
:1019F40043F0040313675C4B1B6F5B4A43F0010322
:101A040013670BE0584B1B6F574A23F0010313670E
:101A1400554B1B6F544A23F0040313677B689B6880
:101A2400002B15D0FFF756FB38610AE0FFF752FB95
:101A340002463B69D31A41F28832934201D9032307
:101A4400CBE0494B1B6F03F00203002BEED014E0F4
:101A5400FFF740FB38610AE0FFF73CFB02463B69B5
:101A6400D31A41F28832934201D90323B5E03E4BA5
:101A74001B6F03F00203002BEED1FB7D012B05D17C
:101A8400394B1B6C384A23F0805313647B689B6981
:101A9400002B00F0A180344B9B6803F00C03082B4F
:101AA4005CD07B689B69022B41D1314B00221A60C8
:101AB400FFF710FB386108E0FFF70CFB02463B69B7
:101AC400D31A022B01D9032387E0274B1B6803F0A9
:101AD4000073002BF0D17B68DA697B681B6A1A43B8
:101AE4007B685B6A9B011A437B689B6A5B08013BCA
:101AF4001B041A437B68DB6A1B061B4913434B60B8
:101B04001B4B01221A60FFF7E5FA386108E0FFF782
:101B1400E1FA02463B69D31A022B01D903235CE0A4
:101B2400114B1B6803F00073002BF0D054E0104BF2
:101B340000221A60FFF7CEFA386108E0FFF7CAFA0C
:101B440002463B69D31A022B01D9032345E0064B15
:101B54001B6803F00073002BF0D13DE07B689B69A8
:101B6400012B07D1012338E0003802400070004007
:101B7400600047421B4B5B68FB607B689B69012BE1
:101B840028D0FB6803F480027B68DB699A4221D188
:101B9400FB6803F03F027B681B6A9A421AD1FA6819
:101BA40047F6C07313407A68526A9201934211D186
:101BB400FB6803F440327B689B6A5B08013B1B04AF
:101BC4009A4207D1FB6803F070627B68DB6A1B06EC
:101BD4009A4201D0012300E0002318461837BD467D
:101BE40080BD00BF0038024080B584B000AF78608B
:101BF40039607B68002B01D10123CCE0684B1B6862
:101C040003F007033A689A420CD9654B3A68D2B29A
:101C14001A70634B1B6803F007033A689A4201D0B9
:101C24000123B8E07B681B6803F00203002B20D07B
:101C34007B681B6803F00403002B05D0594B9B6899
:101C4400584A43F4E05393607B681B6803F008032D
:101C5400002B05D0534B9B68524A43F46043936076
:101C6400504B9B6823F0F0027B689B684D491343FB
:101C74008B607B681B6803F00103002B44D07B68F6
:101C84005B68012B07D1474B1B6803F40033002B1F
:101C940019D101237FE07B685B68022B03D07B684A
:101CA4005B68032B07D13F4B1B6803F00073002BC9
:101CB40009D101236FE03B4B1B6803F00203002BA7
:101CC40001D1012367E0374B9B6823F003027B6853
:101CD4005B68344913438B60FFF7FCF9F8600AE052
:101CE400FFF7F8F90246FB68D31A41F288329342AF
:101CF40001D903234FE02B4B9B6803F00C027B6854
:101D04005B689B009A42EBD1254B1B6803F00703E9
:101D14003A689A420CD2224B3A68D2B21A70204BDB
:101D24001B6803F007033A689A4201D0012332E0AA
:101D34007B681B6803F00403002B08D0194B9B68D5
:101D440023F4E0527B68DB68164913438B607B689D
:101D54001B6803F00803002B09D0124B9B6823F483
:101D640060427B681B69DB000E4913438B6000F003
:101D740021F802460B4B9B681B0903F00F030A4929
:101D8400CB5C22FA03F3094A1360094B1B6818461B
:101D9400FFF75CF9002318461037BD4680BD00BF2D
:101DA400003C024000380240E433000800000020F8
:101DB400040000202DE9B04F90B000AF00237B63F6
:101DC4000023FB6300233B630023BB63594B9B68E5
:101DD40003F00C03082B0DD0082B00F2A180002B7C
:101DE40002D0042B03D09BE0534BBB639BE0534BCB
:101DF400BB6398E04F4B5B6803F03F037B634D4B41
:101E04005B6803F48003002B28D04A4B5B689B0972
:101E140000223B627A623B6AC3F308000021474B0D
:101E240003FB01F2002300FB03F31344434AA0FB2A
:101E34000212FA620A46BA62FA6A1344FB627B6BC4
:101E44000022BB61FA61D7E90623D7E90A01FEF74C
:101E5400BFF902460B461346FB6353E0354B5B6800
:101E64009B0900223B617A613B69C3F3080A4FF086
:101E7400000B52465B464FF000004FF00001590141
:101E840041EAD261500102460B46B2EB0A0863EB09
:101E94000B094FF000024FF000034FEA891343EAA5
:101EA40098634FEA8812B2EB080463EB09054FF01C
:101EB40000024FF00003EB0043EA5473E2001446BF
:101EC4001D4614EB0A033B6045EB0B037B604FF0AC
:101ED40000024FF00003D7E9004529468B02214652
:101EE40043EA915321468A02104619467B6B00222D
:101EF400BB60FA60D7E90223FEF76AF902460B4693
:101F04001346FB630B4B5B681B0C03F003030133A9
:101F14005B003B63FA6B3B6BB2FBF3F3BB6302E026
:101F2400054BBB6300BFBB6B18464037BD46BDE8DD
:101F3400B08F00BF003802400024F40040787D01D7
:101F440080B400AF034B1B681846BD465DF8047BA4
:101F5400704700BF0000002080B500AFFFF7F0FF1E
:101F64000246054B9B689B0A03F007030349CB5CBD
:101F740022FA03F3184680BD00380240F433000807
:101F840080B500AFFFF7DCFF0246054B9B685B0B97
:101F940003F007030349CB5C22FA03F3184680BD20
:101FA40000380240F433000880B582B000AF786096
:101FB4007B68002B01D101237BE07B685B6A002BEB
:101FC40008D17B685B68B3F5827F09D07B68002207
:101FD400DA6105E07B6800221A617B6800225A619D
:101FE4007B6800229A627B6893F85130DBB2002B45
:101FF40006D17B68002283F850207868FEF70EFC37
:102004007B68022283F851207B681B681A687B680E
:102014001B6822F040021A607B685B6803F48272DA
:102024007B689B6803F404431A437B68DB6803F40E
:1020340000631A437B681B6903F002031A437B683D
:102044005B6903F001031A437B689B6903F4007323
:102054001A437B68DB6903F038031A437B681B6A05
:1020640003F0800342EA03017B689B6A03F4005295
:102074007B681B680A431A607B689B691B0C03F02E
:1020840004017B685B6A03F010027B681B680A43E7
:102094005A607B681B68DA697B681B6822F40062FB
:1020A400DA617B6800225A657B68012283F851203B
:1020B400002318460837BD4680BD80B588B000AF00
:1020C400F860B9603B601346FB800023FB77FB6834
:1020D40093F85030012B01D102232DE1FB6801223A
:1020E40083F85020FEF7F6FFB861FB88FB82FB689B
:1020F40093F85130DBB2012B02D00223FB7716E1B7
:10210400BB68002B02D0FB88002B02D10123FB7794
:102114000DE1FB68032283F85120FB6800225A6515
:10212400FB68BA681A63FB68FA889A86FB68FA88BF
:10213400DA86FB6800229A63FB6800229A87FB68B0
:102144000022DA87FB6800225A64FB6800221A64C2
:10215400FB689B68B3F5004F0FD1FB681B681A68D6
:10216400FB681B6822F040021A60FB681B681A684F
:10217400FB681B6842F480421A60FB681B681B689A
:1021840003F04003402B07D0FB681B681A68FB6808
:102194001B6842F040021A60FB68DB68B3F5006F0D
:1021A4004FD1FB685B68002B02D0FB8A012B42D124
:1021B400FB681B6B1A88FB681B68DA60FB681B6B87
:1021C4009A1CFB681A63FB68DB8E9BB2013B9AB2D4
:1021D400FB68DA862FE0FB681B689B6803F0020348
:1021E400022B12D1FB681B6B1A88FB681B68DA6030
:1021F400FB681B6B9A1CFB681A63FB68DB8E9BB243
:10220400013B9AB2FB68DA8615E0FEF763FF0246EB
:10221400BB69D31A3A689A4203D83B68B3F1FF3FCB
:1022240002D13B68002B06D10323FB77FB68012214
:1022340083F851207BE0FB68DB8E9BB2002BCAD174
:1022440050E0FB685B68002B02D0FB8A012B44D171
:10225400FB681A6BFB681B680C3312781A70FB68F6
:102264001B6B5A1CFB681A63FB68DB8E9BB2013B39
:102274009AB2FB68DA8630E0FB681B689B6803F05F
:102284000203022B13D1FB681A6BFB681B680C3327
:1022940012781A70FB681B6B5A1CFB681A63FB6884
:1022A400DB8E9BB2013B9AB2FB68DA8615E0FEF73F
:1022B40011FF0246BB69D31A3A689A4203D83B68B5
:1022C400B3F1FF3F02D13B68002B06D10323FB7718
:1022D400FB68012283F8512029E0FB68DB8E9BB266
:1022E400002BC9D1BA693968F86800F0DFFB0346EE
:1022F400002B02D0FB6820225A65FB689B68002BE8
:102304000AD100233B61FB681B68DB683B61FB6807
:102314001B689B683B613B69FB685B6D002B02D0CB
:102324000123FB7703E0FB68012283F85120FB685B
:10233400002283F85020FB7F18462037BD4680BD1D
:1023440080B588B002AFF860B9603B601346FB808B
:102354000023FB75FB6893F85130DBB2012B02D0EC
:102364000223FB75FBE0FB685B68B3F5827F12D147
:10237400FB689B68002B0ED1FB68042283F8512074
:10238400FA883B6800931346BA68B968F86800F0A5
:10239400EFF80346E8E0FB6893F85030012B01D1D5
:1023A4000223E1E0FB68012283F85020FEF792FE4D
:1023B4003861BB68002B02D0FB88002B02D10123BB
:1023C400FB75CCE0FB68042283F85120FB680022F3
:1023D4005A65FB68BA689A63FB68FA889A87FB684F
:1023E400FA88DA87FB6800221A63FB6800229A865F
:1023F400FB680022DA86FB6800221A64FB6800226C
:102404005A64FB689B68B3F5004F0FD1FB681B68E7
:102414001A68FB681B6822F040021A60FB681B689C
:102424001A68FB681B6822F480421A60FB681B6808
:102434001B6803F04003402B07D0FB681B681A6835
:10244400FB681B6842F040021A60FB68DB68002BE3
:102454006AD132E0FB681B689B6803F00103012B1F
:1024640015D1FB681B6803F10C02FB689B6B1278A7
:10247400D2B21A70FB689B6B5A1CFB689A63FB68A8
:10248400DB8F9BB2013B9AB2FB68DA8715E0FEF75B
:1024940021FE02463B69D31A3A689A4203D83B6844
:1024A400B3F1FF3F02D13B68002B06D10323FB7538
:1024B400FB68012283F8512051E0FB68DB8F9BB25B
:1024C400002BC7D135E0FB681B689B6803F0010350
:1024D400012B13D1FB681B68DA68FB689B6B92B213
:1024E4001A80FB689B6B9A1CFB689A63FB68DB8F02
:1024F4009BB2013B9AB2FB68DA8715E0FEF7EAFD6E
:1025040002463B69D31A3A689A4203D83B68B3F14E
:10251400FF3F02D13B68002B06D10323FB75FB6808
:10252400012283F851201AE0FB68DB8F9BB2002B59
:10253400C9D13A693968F86800F052FA0346002BA9
:1025440002D0FB6820225A65FB685B6D002B02D029
:102554000123FB7503E0FB68012283F85120FB682B
:10256400002283F85020FB7D18461837BD4680BDF5
:1025740080B58CB000AFF860B9607A607B800123CD
:10258400FB62002387F82B30FB6893F85030012B53
:1025940001D1022398E1FB68012283F85020FEF761
:1025A40099FD7862FB6893F8513087F82330FB6813
:1025B4005B68FB617B887B8397F82330012B0FD00A
:1025C400FB69B3F5827F07D1FB689B68002B03D1BD
:1025D40097F82330042B03D0022387F82B306DE1C6
:1025E400BB68002B05D07B68002B02D07B88002BB6
:1025F40003D1012387F82B3060E1FB6893F8513055
:10260400DBB2042B03D0FB68052283F85120FB685E
:1026140000225A65FB687A689A63FB687A88DA87CD
:10262400FB687A889A87FB68BA681A63FB687A88B9
:10263400DA86FB687A889A86FB6800221A64FB684B
:1026440000225A64FB681B681B6803F04003402B9C
:1026540007D0FB681B681A68FB681B6842F04002DD
:102664001A60FB68DB68B3F5006F7CD1FB685B68BC
:10267400002B02D07B8B012B6AD1FB681B6B1A8861
:10268400FB681B68DA60FB681B6B9A1CFB681A63A7
:10269400FB68DB8E9BB2013B9AB2FB68DA8657E09B
:1026A400FB681B689B6803F00203022B1BD1FB68C9
:1026B400DB8E9BB2002B16D0FB6A012B13D1FB6877
:1026C4001B6B1A88FB681B68DA60FB681B6B9A1C1F
:1026D400FB681A63FB68DB8E9BB2013B9AB2FB6812
:1026E400DA860023FB62FB681B689B6803F0010326
:1026F400012B19D1FB68DB8F9BB2002B14D0FB6834
:102704001B68DA68FB689B6B92B21A80FB689B6B50
:102714009A1CFB689A63FB68DB8F9BB2013B9AB2FD
:10272400FB68DA870123FB62FEF7D4FC02467B6A6E
:10273400D31ABA6B9A420BD8BB6BB3F1FF3F07D0E5
:10274400032387F82B30FB68012283F85120B5E07E
:10275400FB68DB8E9BB2002BA2D1FB68DB8F9BB2A4
:10276400002B9DD180E0FB685B68002B02D07B8B43
:10277400012B6FD1FB681A6BFB681B680C33127852
:102784001A70FB681B6B5A1CFB681A63FB68DB8EB0
:102794009BB2013B9AB2FB68DA865BE0FB681B687C
:1027A4009B6803F00203022B1CD1FB68DB8E9BB2F7
:1027B400002B17D0FB6A012B14D1FB681A6BFB6842
:1027C4001B680C3312781A70FB681B6B5A1CFB686D
:1027D4001A63FB68DB8E9BB2013B9AB2FB68DA8614
:1027E4000023FB62FB681B689B6803F00103012B59
:1027F40019D1FB68DB8F9BB2002B14D0FB681B68DC
:10280400DA68FB689B6BD2B21A70FB689B6B5A1C2C
:10281400FB689A63FB68DB8F9BB2013B9AB2FB684F
:10282400DA870123FB62FEF755FC02467B6AD31A62
:10283400BA6B9A4203D8BB6BB3F1FF3F02D1BB6BB7
:10284400002B07D1032387F82B30FB68012283F880
:10285400512033E0FB68DB8E9BB2002B9ED1FB68DA
:10286400DB8F9BB2002B99D17A6AB96BF86800F0C0
:102874001DF90346002B06D0012387F82B30FB6893
:1028840020225A651AE0FB689B68002B0AD10023BA
:102894007B61FB681B68DB687B61FB681B689B686A
:1028A4007B617B69FB685B6D002B03D0012387F898
:1028B4002B3003E0FB68012283F85120FB680022DF
:1028C40083F8502097F82B3018463037BD4680BD2A
:1028D40080B588B000AFF860B9603B601346FB7107
:1028E400FEF7F8FB0246BB6A9B1A3A681344FB6185
:1028F400FEF7F0FBB861394B1B685B011B0DFA69ED
:1029040002FB03F37B6154E03B68B3F1FF3F50D01B
:10291400FEF7E0FB0246BB69D31AFA699A4202D970
:10292400FB69002B3DD1FB681B685A68FB681B6878
:1029340022F0E0025A60FB685B68B3F5827F11D134
:10294400FB689B68B3F5004F04D0FB689B68B3F544
:10295400806F07D1FB681B681A68FB681B6822F04C
:1029640040021A60FB689B6AB3F5005F0FD1FB68F5
:102974001B681A68FB681B6822F400521A60FB6823
:102984001B681A68FB681B6842F400521A60FB68F3
:10299400012283F85120FB68002283F8502003238E
:1029A40017E07B69002B01D10023FB617B69013BAC
:1029B4007B61FB681B689A68BB681340BA689A42DB
:1029C4000CBF01230023DBB21A46FB799A429BD148
:1029D400002318462037BD4680BD00BF00000020FC
:1029E40080B586B002AFF860B9607A60FB685B6856
:1029F400B3F5827F11D1FB689B68B3F5004F04D017
:102A0400FB689B68B3F5806F07D1FB681B681A6885
:102A1400FB681B6822F040021A60FB685B68B3F530
:102A2400827F2AD1FB689B68B3F5806F12D07B68E4
:102A34000093BB6800228021F868FFF749FF034632
:102A4400002B2DD0FB685B6D43F02002FB685A65B8
:102A5400032326E07B680093BB6800220121F86809
:102A6400FFF736FF0346002B1AD0FB685B6D43F07B
:102A74002002FB685A65032313E07B680093BB685C
:102A840000220121F868FFF723FF0346002B07D03B
:102A9400FB685B6D43F02002FB685A65032300E08A
:102AA400002318461037BD4680BD000080B588B0AD
:102AB40002AFF860B9607A607B680093BB6801225A
:102AC4000221F868FFF704FF0346002B07D0FB68D8
:102AD4005B6D43F02002FB685A65032332E01B4B15
:102AE4001B681B4AA2FB03235B0D4FF47A7202FBA3
:102AF40003F37B61FB685B68B3F5827F12D17B686B
:102B04000093BB6800228021F868FFF7E1FE0346CA
:102B1400002B16D0FB685B6D43F02002FB685A65FE
:102B240003230FE07B69002B0AD07B69013B7B61A7
:102B3400FB681B689B6803F08003802BF2D000E0E5
:102B440000BF002318461837BD4680BD0000002092
:102B5400819F5E1680B582B000AF78607B68002BE1
:102B640001D1012342E07B6893F84130DBB2002BB2
:102B740006D17B68002283F840207868FDF72CFF9B
:102B84007B68242283F841207B681B68DA687B68B1
:102B94001B6822F40052DA60786800F073F97B68ED
:102BA4001B681A697B681B6822F490421A617B686F
:102BB4001B685A697B681B6822F02A025A617B6889
:102BC4001B68DA687B681B6842F40052DA607B6831
:102BD40000225A647B68202283F841207B682022EB
:102BE40083F842207B6800225A6300231846083782
:102BF400BD4680BD80B58AB002AFF860B9603B6065
:102C04001346FB8000237B61FB6893F84130DBB201
:102C1400202B75D1BB68002B02D0FB88002B01D17F
:102C240001236EE0FB6800225A64FB68212283F8CA
:102C34004120FEF74FFA7861FB68FA889A84FB68B2
:102C4400FA88DA84FB689B68B3F5805F08D1FB6877
:102C54001B69002B04D10023FB61BB68BB6103E04B
:102C6400BB68FB610023BB612EE03B6800937B697A
:102C740000228021F86800F048F80346002B05D0B4
:102C8400FB68202283F8412003233AE0FB69002BF0
:102C94000BD1BB691B881A46FB681B68C2F3080288
:102CA4005A60BB690233BB6107E0FB691A78FB68B1
:102CB4001B685A60FB690133FB61FB68DB8C9BB2C8
:102CC400013B9AB2FB68DA84FB68DB8C9BB2002B75
:102CD400CBD13B6800937B6900224021F86800F067
:102CE40014F80346002B05D0FB68202283F841200A
:102CF400032306E0FB68202283F84120002300E040
:102D0400022318462037BD4680BD80B586B000AF8B
:102D1400F860B9603B601346FB713BE03B6AB3F17A
:102D2400FF3F37D0FEF7D6F902463B68D31A3A6A1A
:102D34009A4202D33B6A002B01D103233AE0FB6899
:102D44001B68DB6803F00403002B23D0BB68802BD3
:102D540020D0BB68402B1DD0FB681B681B6803F0A8
:102D64000803082B16D100237B61FB681B681B68D2
:102D74007B61FB681B685B687B617B69F86800F0BA
:102D84001DF8FB6808225A64FB68002283F840207F
:102D940001230FE0FB681B681A68BB681340BA681C
:102DA4009A420CBF01230023DBB21A46FB799A42F4
:102DB400B4D0002318461837BD4680BD80B495B002
:102DC40000AF78607B681B680C337B637B6B53E8D4
:102DD400003F3B633B6B23F49073FB647B681B688D
:102DE4000C33FA6C3A64FB63F96B3A6C41E80023E8
:102DF400BB63BB6B002BE5D17B681B6814333B6260
:102E04003B6A53E8003FFB61FB6923F00103BB64A9
:102E14007B681B681433BA6CFA62BB62B96AFA6ADB
:102E240041E800237B627B6A002BE5D17B681B6B46
:102E3400012B19D17B681B680C33FB60FB6853E8DA
:102E4400003FBB60BB6823F010037B647B681B6896
:102E54000C337A6CBA617B617969BA6941E8002301
:102E64003B613B69002BE5D17B68202283F842203B
:102E74007B6800221A6300BF5437BD465DF8047BAB
:102E8400704700002DE9B04FC0B000AFC7F8F400A0
:102E9400D7F8F4301B681B6923F44050D7F8F4309A
:102EA400D968D7F8F4301A6840EA01031361D7F8F7
:102EB400F4309A68D7F8F4301B691A43D7F8F43021
:102EC4005B691A43D7F8F430DB691343C7F8F83069
:102ED400D7F8F4301B68DB6823F4164121F00C01A9
:102EE400D7F8F4301A68D7F8F8300B43D360D7F822
:102EF400F4301B685B6923F44070D7F8F4309969A7
:102F0400D7F8F4301A6840EA01035361D7F8F43073
:102F14001A688F4B9A4205D0D7F8F4301A688D4B53
:102F24009A4204D1FFF72CF8C7F8FC0003E0FFF73E
:102F340013F8C7F8FC00D7F8F430DB69B3F5004F99
:102F440040F00C81D7F8FC300022C7F8E830C7F80D
:102F5400EC20D7E93A4522462B469118B9655B41E6
:102F6400FB65D7E91623214612EB0108294643EBFA
:102F740001094FF000024FF000034FEAC90343EA8E
:102F840058734FEAC80290469946234618EB030348
:102F9400C7F8E0302B4649EB0303C7F8E430D7F811
:102FA400F4305B680022C7F8D830C7F8DC20D7E9D2
:102FB40036120B46DB183B65134642EB03037B6575
:102FC400D7E91423D7E93801FDF702F902460B4685
:102FD400614BA3FB02235B091C01D7F8FC300022E0
:102FE400C7F8D030C7F8D420D7E9348942464B46D5
:102FF4009118B9645B41FB64D7E91223414612EB93
:10300400010A494643EB010B4FF000024FF0000365
:103014004FEACB0343EA5A734FEACA0292469B46ED
:1030240043461AEB0303C7F8C8304B464BEB030384
:10303400C7F8CC30D7F8F4305B680022C7F8C0304A
:10304400C7F8C420D7E930120B46DB183B6413469B
:1030540042EB03037B64D7E91023D7E93201FDF780
:10306400B7F802460B4611463B4BA3FB01235B0911
:10307400642202FB03F3CB1ADB0003F13202364B6A
:10308400A3FB02235B095B0003F4F8731C44D7F829
:10309400FC300022C7F8B830C7F8BC20D7E92E8925
:1030A40042464B469118B9635B41FB63D7E90E2353
:1030B40041465118396349464B417B634FF0000246
:1030C4004FF00003D7E90CAB5946CB00514643EA15
:1030D40051735146CA0010461946034642469B188E
:1030E400C7F8B0304B460A4642EB0303C7F8B43086
:1030F400D7F8F4305B680022C7F8A830C7F8AC20D2
:10310400D7E92A120B46DB18BB62134642EB0303D2
:10311400FB62D7E90A23D7E92C01FDF759F80246E7
:103124000B460D4BA3FB02135B09642101FB03F364
:10313400D31ADB003233084AA2FB03235B0903F0F2
:103144000702D7F8F4301B6822449A6006E100BFF6
:1031540000100140001401401F85EB51D7F8FC30EA
:103164000022C7F8A030C7F8A420D7E9288942462E
:103174004B46911839625B417B62D7E9082341468B
:103184005418494643EB01054FF000024FF0000389
:10319400EB0043EA5473E20014461D464346E31829
:1031A400C7F898304B4645EB0303C7F89C30D7F873
:1031B400F4305B680022C7F89030C7F894204FF0D1
:1031C40000024FF00003D7E9244529468B0021462D
:1031D40043EA917321468A00D7E92601FCF7F8FFF8
:1031E40002460B46604BA3FB02235B091C01D7F884
:1031F400FC300022C7F88830C7F88C20D7E9228930
:1032040042464B469118B9615B41FB61D7E90623FD
:1032140041465118396149464B417B614FF00002E8
:103224004FF00003D7E904AB5946CB00514643EABB
:1032340051735146CA0010461946034642469B182C
:10324400C7F880304B460A4642EB0303C7F8843084
:10325400D7F8F4305B680022BB67FA674FF00002CE
:103264004FF00003D7E91E8949468B00414643EAE3
:10327400917341468A00D7E92001FCF7A9FF024671
:103284000B461146384BA3FB01235B09642202FB66
:1032940003F3CB1A1B013233334AA2FB03235B092A
:1032A40003F0F0031C44D7F8FC3000223B677A6734
:1032B400D7E91C8942464B469118B9605B41FB60D3
:1032C400D7E9022341465118396049464B417B6096
:1032D4004FF000024FF00003D7E900AB5946CB0092
:1032E400514643EA51735146CA00104619460346F3
:1032F40042469B18BB664B460A4642EB0303FB66F9
:10330400D7F8F4305B6800223B667A664FF000021F
:103314004FF00003D7E9188949468B00414643EA38
:10332400917341468A00D7E91A01FCF751FF02461E
:103334000B460D4BA3FB02135B09642101FB03F352
:10334400D31A1B013233084AA2FB03235B0903F09F
:103354000F02D7F8F4301B6822449A6000BF07F5C7
:103364008077BD46BDE8B08F1F85EB51024403460C
:10337400934200D1704703F8011BF9E770B50D4D76
:103384000D4C641BA4100026A64209D10B4D0C4C15
:1033940000F018F8641BA4100026A64205D170BDE5
:1033A40055F8043B98470136EEE755F8043B984737
:1033B4000136F2E704340008043400080434000839
:1033C40008340008F8B500BFF8BC08BC9E46704736
:0C33D400F8B500BFF8BC08BC9E4670476E
:1033E0000D0A0000000000000000000001020304BC
:0C33F000060708090000000001020304A9
:0833FC0008CEFF7F0100000074
:04340400B901000802
:043408009501000822
:0C340C000024F40010000000010000008B
:0400000508000FB927
:00000001FF
