:020000040800F2
:100000000050002065160008091600080F160008A9
:10001000151600081B160008211600080000000035
:10002000000000000000000000000000271600088B
:1000300033160008000000003F1600084B160008A9
:10004000AD160008AD160008AD160008AD16000884
:10005000AD160008AD160008AD160008AD16000874
:10006000AD160008AD160008AD160008AD16000864
:10007000AD160008AD160008AD160008AD16000854
:10008000AD160008AD160008AD160008AD16000844
:10009000AD160008AD160008AD160008AD16000834
:1000A000AD160008AD160008AD160008AD16000824
:1000B000AD160008AD160008AD160008AD16000814
:1000C000AD160008AD160008AD160008AD16000804
:1000D000AD160008AD160008AD160008AD160008F4
:1000E000AD160008AD160008AD16000800000000AF
:1000F0000000000000000000000000000000000000
:0C01000000000000000000005FF808F1A3
:10010C0010B5054C237833B9044B13B10448AFF345
:10011C0000800123237010BD380000200000000077
:10012C001C17000808B5034B1BB103490348AFF378
:10013C00008008BD000000003C0000201C170008D7
:10014C0080B582B000AF0A4800F09BFF78607B68F6
:10015C00B3F1FF3F02D100F00DF804E07B68002BF7
:10016C0001D100F013F900BF0837BD4680BD00BFB8
:10017C0000FC000880B584B000AF214800F081FF7E
:10018C00F860204800F07DFFB8606FF00C037B60D6
:10019C00FB6813F10F0F11D100F012F938603A68B7
:1001AC00BB689A4202D100F0F9F825E06FF00B0120
:1001BC00134801F0EBF801F0E5F91DE0FB6813F1D1
:1001CC000C0F03D0FB68B3F1FF3F15D100F01CF806
:1001DC0078607B6813F10E0F04D100F029F900F060
:1001EC00DDF809E07B6813F10C0F03D07B68B3F1E9
:1001FC00FF3F01D100F0CEF900BF1037BD4680BDE6
:10020C0014FC00081CFC000880B584B000AF134837
:10021C0000F037FFB860124800F033FF786000231D
:10022C00FB60BB6813F10D0F12D100F0E5F83860DC
:10023C003A687B689A4203D16FF00D03FB6007E0CC
:10024C006FF00B01054801F0A1F86FF00B03FB6098
:10025C00FB6818461037BD4680BD00BF34FC000853
:10026C003CFC000880B584B000AF0023FB7312483F
:10027C0000F007FFB860114800F003FF7860BB681E
:10028C00B3F1FF3F03D0BB6813F10C0F0DD17B68AA
:10029C00B3F1FF3F03D07B6813F10C0F02D10123A4
:1002AC00FB7304E00023FB7301E00023FB73FB7B77
:1002BC0018461037BD4680BD14FC000834FC0008FD
:1002CC0080B588B000AFFFF7CDFF0346FB772B4816
:1002DC0000F0D7FEB8610023FB600023FB72002303
:1002EC007B6100233B6100233B6000237B60FB7F31
:1002FC00012B07D107F10C03184600F01BFA204B19
:10030C0001221A70502000F069FA07F10B0318460D
:10031C0000F02CFAFB7A342B2BD1732000F05EFA10
:10032C003B460821184600F03FFAFB781A06BB78CA
:10033C001B041A437B781B0213433A7813437B61EB
:10034C00FB791A06BB791B041A437B791B021343F6
:10035C003A7913433B61BB6913F10F0F01D100F0E4
:10036C00C1F87969074801F011F83969064801F0BC
:10037C000DF800BF2037BD4680BD00BF14FC00083F
:10038C000000002018FC00081CFC000880B500AF21
:10039C00FFF796FF00F00AF900BF80BD80B582B070
:1003AC0000AF00237B60054B1B687B6000F06AF993
:1003BC007B68984700BF0837BD4680BD0414000811
:1003CC0080B584B000AF00237B60094800F059FE73
:1003DC00F860FB689B08BB603B1D1A46B968054872
:1003EC0000F04CFD7B6818461037BD4680BD00BF41
:1003FC0018FC00080014000880B584B000AF00237E
:10040C007B60094800F03DFEF860FB689B08BB6010
:10041C003B1D1A46B968054800F030FD7B6818464C
:10042C001037BD4680BD00BF38FC000800880008AE
:10043C0080B588B000AF0023BB6100237B61002333
:10044C003B61224800F01DFEF860FB689B08BB6016
:10045C001F4800F016FE78602121072000F0F6FD01
:10046C000023FB6117E0FB6903F1007303F5A06344
:10047C009B003B61FB6903F1007303F508539B0080
:10048C007B617B691B68BB61B969386900F066FDEB
:10049C00FB690133FB61FA69BB689A42E3D3F968E3
:1004AC000C4800F073FF79680B4800F06FFF6FF099
:1004BC000E010A4800F06AFF6FF00C01084800F0CA
:1004CC0065FF00BF2037BD4680BD00BF38FC00086B
:1004DC003CFC000818FC00081CFC000814FC00087C
:1004EC0034FC000880B588B000AF0023BB6100234A
:1004FC007B6100233B61224800F0C3FDF860FB6880
:10050C009B08BB601F4800F0BCFD78603E21222098
:10051C0000F09CFD0023FB6117E0FB6903F1007305
:10052C0003F508539B003B61FB6903F1007303F572
:10053C00A0639B007B617B691B68BB61B9693869EF
:10054C0000F00CFDFB690133FB61FA69BB689A4250
:10055C00E3D3F9680C4800F019FF79680B4800F0F8
:10056C0015FF6FF00C010A4800F010FF6FF00E0140
:10057C00074800F00BFF00BF2037BD4680BD00BF11
:10058C0018FC00081CFC000838FC00083CFC0008A7
:10059C0034FC000880B500AF0021034800F0F6FEE3
:1005AC0000F0D2FF00BF80BD00FC000880B582B017
:1005BC0000AF0023FB702F4B7B602F4800F061FDD8
:1005CC0003462E4A13602121072000F03FFD7420C2
:1005DC0000F004F945E0FB1C184600F0C7F8FB7866
:1005EC00362B35D1752000F0F9F8244B1B68B3F588
:1005FC00806F18D94FF48061214800F0D5F81F4B5B
:10060C001B68A3F580631D4A13604FF480621C497C
:10061C00786800F045FD7B6803F580637B6076208D
:10062C0000F0DCF814E0154B1B689BB2194614481B
:10063C0000F0BAF8114B1B689BB21A461049786847
:10064C0000F02EFD0D4B00221A60762000F0C6F84B
:10065C00FB1C184600F08AF8FB78372B01D100F010
:10066C001FF8064B1B68002BB5D100BF00BF083725
:10067C00BD4680BD0014000818FC00085400002082
:10068C005800002080B400AF034B044A1A6000BF2E
:10069C00BD4680BC704700BF08ED00E000140008A8
:1006AC0080B500AF772000F099F86FF00E010D487F
:1006BC0000F06CFE6FF00C010B4800F067FE0B4B6A
:1006CC001B78012B04D1094B00221A70FFF70AFF8B
:1006DC004FF0FF31064800F059FE00F035FF00BF27
:1006EC0080BD00BF14FC000834FC00080000002092
:1006FC0000FC000884B080B584B000AF786007F1CE
:10070C001C0080E80E000123FB737B68002B03D1D7
:10071C000023FB73FB7B06E007F11C03194678688A
:10072C0000F072FAFB7B18461037BD46BDE88040DE
:10073C0004B0704780B584B000AF78600123FB73C0
:10074C007B68002B03D10023FB73FB7B08E00021AB
:10075C00054800F04BFBB8607B68BA681A60FB7BFD
:10076C0018461037BD4680BD0064004080B584B08B
:10077C0000AF78600123FB737B68002B03D100234F
:10078C00FB73FB7B09E00021064800F057FB034696
:10079C00BB737B68BA7B1A70FB7B18461037BD465F
:1007AC0080BD00BF0064004080B584B000AF7860AD
:1007BC000B467B800123FB737B68002B03D100234A
:1007CC00FB73FB7B06E07B88DBB21946786800F094
:1007DC00D1FAFB7B18461037BD4680BD80B58AB078
:1007EC0002AF0346FB710123FB770223FB6001235D
:1007FC003B7400233B7200237B72FB797B746A464B
:10080C0007F1140393E8030082E8030007F10803DF
:10081C000ECB0548FFF76EFF0346FB77FB7F1846B0
:10082C002037BD4680BD00BF0064004080B483B05B
:10083C0000AF786039607B681B6823F002027B682C
:10084C001A607B681B6843F001027B681A6000E049
:10085C0000BF3D4B5B6803F00103002BF8D13B68F4
:10086C009B79012B06D17B681B6843F080027B6867
:10087C001A6005E07B681B6823F080027B681A60B5
:10088C003B68DB79012B06D17B681B6843F0400287
:10089C007B681A6005E07B681B6823F040027B686C
:1008AC001A603B681B7A012B06D17B681B6843F0EE
:1008BC0020027B681A6005E07B681B6823F020022D
:1008CC007B681A603B685B7A012B06D17B681B68DE
:1008DC0043F010027B681A6005E07B681B6823F00C
:1008EC0010027B681A603B68DB7A012B06D17B68AF
:1008FC001B6843F004027B681A6005E07B681B6888
:10090C0023F004027B681A603B689B789A073B686B
:10091C00DB781B061A433B681B791B041A433B68A4
:10092C005B791B051A433B681B88013B1A437B68A8
:10093C00DA617B681B6823F001027B681A6000BFD8
:10094C000C37BD4680BC70470064004080B485B055
:10095C0000AF786039603B68D3F8003243F0010295
:10096C003B68C3F800227B685B69FB603B68D3F88B
:10097C001C327A685269012101FA02F2D2431A4000
:10098C003B68C3F81C227B68DB69002B27D13B68D2
:10099C00D3F80C320121FA6801FA02F2D2431A4060
:1009AC003B68C3F80C227B68DB6819047B685B68C6
:1009BC009BB27A68526919433B68483243F832104B
:1009CC007B689B6819047B681B689AB27B685B69BF
:1009DC000A4339684833DB000B445A6029E07B68D2
:1009EC00DB69012B25D13B68D3F80C320121FA6865
:1009FC0001FA02F21A433B68C3F80C227B681B68AD
:100A0C0019047B685B689BB27A68526919433B682E
:100A1C00483243F832107B689B6819047B68DB68AA
:100A2C009AB27B685B690A4339684833DB000B4434
:100A3C005A607B689B69002B0CD13B68D3F804325D
:100A4C000121FA6801FA02F2D2431A403B68C3F85A
:100A5C0004220AE03B68D3F804320121FA6801FA57
:100A6C0002F21A433B68C3F804227B681B69002B13
:100A7C000CD13B68D3F814320121FA6801FA02F266
:100A8C00D2431A403B68C3F814220AE03B68D3F8FF
:100A9C0014320121FA6801FA02F21A433B68C3F8D6
:100AAC0014227B6893F82030012B0AD13B68D3F8D1
:100ABC001C320121FA6801FA02F21A433B68C3F8AE
:100ACC001C223B68D3F8003223F001023B68C3F8C8
:100ADC00002200BF1437BD4680BC704780B487B07D
:100AEC0000AFF8600B467A60FB72FB7AFA681B3336
:100AFC001B01134404331B68DBB203F00F03DAB29F
:100B0C007B681A72FB7AFA681B331B0113441B684F
:100B1C00DBB203F00403DAB27B681A70FB7AFA6872
:100B2C001B331B0113441B68DBB203F00203DAB264
:100B3C007B685A70FB7AFA681B331B01134404332D
:100B4C001B681B0ADAB27B685A747B681B78002B13
:100B5C0009D1FB7AFA681B331B0113441B685A0D2D
:100B6C007B685A6008E0FB7AFA681B331B0113445C
:100B7C001B68DA087B685A600023FB7527E0FB7D55
:100B8C00032B10D8FB7AFA681B01134403F5DC73B2
:100B9C001A68FB7DDB00DA40FB7DD1B27A68134426
:100BAC000A465A7210E0FB7AFA681B01134403F5EB
:100BBC00DE731A68FB7D043BDB00DA40FB7DD1B2AF
:100BCC007A6813440A465A72FB7D0133FB757B68C5
:100BDC001B7AFA7D9A42D2D3FB7A002B06D1FB68A2
:100BEC00DB6843F02002FB68DA6008E0FB7A012B3B
:100BFC0005D1FB681B6943F02002FB681A6100BF3A
:100C0C001C37BD4680BC704780B485B000AF78609F
:100C1C0039600023FB7300BF554B9B6803F01A032C
:100C2C00002BF9D0FB7B7A6818331B01134400228C
:100C3C001A60FB7B7A6818331B0113441A683B68F3
:100C4C001B7899003B685B785B000B431946FB7B78
:100C5C000A43796818331B010B441A603B681B78F4
:100C6C00002B10D0FB7B7A6818331B0113441968D6
:100C7C003B685B685A05FB7B0A43796818331B0198
:100C8C000B441A600FE0FB7B7A6818331B0113448A
:100C9C0019683B685B68DA00FB7B0A437968183398
:100CAC001B010B441A60FB7B7A6818331B0113443D
:100CBC0004331B6803F0F0023B681B7A1946FB7B7C
:100CCC000A43796818331B010B4404331A60FB7B0D
:100CDC007A681B01134403F5C47300221A60FB7B72
:100CEC007A681B01134403F5C67300221A603B6833
:100CFC001B7C1A063B68DB7B1B041A433B689B7B03
:100D0C001B0213433A68527B1A43FB7B11467A68E9
:100D1C001B01134403F5C67319603B681B7B1A0651
:100D2C003B68DB7A1B041A433B689B7A1B02134318
:100D3C003A68527A1A43FB7B11467A681B011344BA
:100D4C0003F5C4731960FB7B7A6818331B011344D9
:100D5C001A68FB7B42F00102796818331B010B44C3
:100D6C001A60FB7B18461437BD4680BC704700BF29
:100D7C000064004080B588B000AF78600B46FB7013
:100D8C0000237B77FB78DB083B770023FB7722E0A3
:100D9C0000BF154BDB6803F00303002BF9D007F100
:100DAC0008031A4600211048FFF798FE0023BB7772
:100DBC000BE0BA7F7B7F79680B4420323A4412F8FF
:100DCC000F2C1A70BB7F0133BB77BB7F072BF0D97D
:100DDC00FB7F0133FB77FA7F3B7F9A42D8D300BF6E
:100DEC0000BF2037BD4680BD0064004080B588B090
:100DFC0000AF78600B46FB700023FB6100BF0E4B0D
:100E0C00DB6803F00303002BF9D007F10802FB7831
:100E1C0019467868FFF762FE3B7D1A06FB7C1B04C3
:100E2C001A43BB7C1B0213437A7C1343FB61FB69A3
:100E3C0018462037BD4680BD0064004080B588B0A0
:100E4C0000AF78600B46FB700023FB7700BF0A4BAA
:100E5C00DB6803F00303002BF9D007F10802FB78E1
:100E6C0019467868FFF73AFE7B7CFB77FB7F1846C8
:100E7C002037BD4680BD00BF0064004080B489B0FF
:100E8C0000AFF860B9607A607B6800221A600023BA
:100E9C00BB610023FB820023BB82FB683B613B6987
:100EAC00002B37D01E4B01221A600023FB6129E076
:100EBC00FB681B78DBB21B021AB2FB6801331B7890
:100ECC00DBB21BB213431BB2BB82FB6802331B7831
:100EDC00DBB21B021AB2FB6803331B78DBB21BB20A
:100EEC0013431BB2FB82BB8A1A04FB8A1A430D4BB9
:100EFC001A600C4B1B68BB61FB680433FB60FB691D
:100F0C000133FB61FA69BB689A42D1D3054B1A686D
:100F1C007B681A6000BF2437BD4680BC704700BF99
:100F2C00083002400030024080B582B000AF03466A
:100F3C00FB80FB88184600F033F800BF0837BD462D
:100F4C0080BD80B582B000AF786039603968786850
:100F5C0000F004F800BF0837BD4680BD80B586B0F0
:100F6C0000AF7860396000237B617B683B613B6834
:100F7C00FB813B681B0CBB81FB891946786800F030
:100F8C00C1F87B680233BA891146184600F0BAF8EA
:100F9C003B691B889BB27B6100BF1837BD4680BD87
:100FAC0080B483B000AF0346FB80254B1B69244AF9
:100FBC0043F08003136100BF214BDB6803F0010396
:100FCC00012BF9D01E4B1B69DB0903F00103012B2C
:100FDC0005D11B4B1B4A5A60194B1B4A5A60184BC4
:100FEC001B69174A43F002031361FB889B02144AE6
:100FFC0003F100635361124B1B69114A43F0400328
:10100C00136100BF0E4BDB6803F00103012BF9D019
:10101C000B4BDB680A4A43F02003D360084B1B6977
:10102C00074A23F002031361054B1B69044A43F082
:10103C008003136100BF0C37BD4680BC704700BFF6
:10104C000020024023016745AB89EFCD80B584B009
:10105C0000AF03460A46FB801346BB80FB88FB812E
:10106C0006E0FB891846FFF79BFFFB890133FB81E8
:10107C00FA89BB889A42F4D900BF00BF1037BD462D
:10108C0080BD80B485B000AF78600023FB607B68C6
:10109C001B68FB60FB6818461437BD4680BC704764
:1010AC0080B586B000AFF860B9601346FB800023B2
:1010BC00BB820023FB820023FB8219E0FB8ABA6807
:1010CC0013441B781AB2FB8A0133B9680B441B78A2
:1010DC001B021BB213431BB2BB82BB8A1946F868B6
:1010EC0000F010F8FB680233FB60FB8A0233FB82D2
:1010FC00FA8AFB889A42E1D300BF00BF1837BD467D
:10110C0080BD000080B483B000AF78600B467B805C
:10111C0000BF1D4BDB6803F00103012BF9D01A4B08
:10112C001B69DB0903F00103012B05D1164B174A90
:10113C005A60154B164A5A60134B1B69124A43F0FE
:10114C00010313617B687A881A8000BF0E4BDB6841
:10115C0003F00103012BF9D00B4BDB680A4A43F077
:10116C002003D360084B1B69074A23F0010313616A
:10117C00054B1B69044A43F08003136100BF0C3715
:10118C00BD4680BC704700BF00200240230167456C
:10119C00AB89EFCD80B485B000AF03460A46FB7136
:1011AC001346BB71FB790F2B02D8724BFB6016E018
:1011BC00FB790F2B08D9FB791F2B05D86E4BFB60E5
:1011CC00FB79103BFB710AE0FB791F2B07D9FB79EC
:1011DC002F2B04D8694BFB60FB79203BFB71FB6820
:1011EC00664A934200F08180FB68644A934200F2A5
:1011FC00B580FB685F4A934204D0FB685E4A934219
:10120C003AD0ABE0FB79072B17D85A4B1B68FA790D
:10121C0092000F2101FA02F2D2431146554A0B40BB
:10122C001360544B1B68B979FA79920001FA02F2F7
:10123C001146504A0B43136092E0FB790F2B00F2DE
:10124C008F80FB79083BFB714D4B1B68FA79920040
:10125C000F2101FA02F2D2431146494A0B401360A6
:10126C00474B1B68B979FA79920001FA02F21146E0
:10127C00434A0B43136073E0FB79072B17D83E4BA3
:10128C001B68FA7992000F2101FA02F2D24311463F
:10129C00394A0B401360384B1B68B979FA799200C4
:1012AC0001FA02F21146344A0B4313605AE0FB79FF
:1012BC000F2B57D8FB79083BFB71324B1B68FA7923
:1012CC0092000F2101FA02F2D24311462D4A0B4033
:1012DC0013602C4B1B68B979FA79920001FA02F26F
:1012EC001146284A0B4313603CE0FB79072B17D8B7
:1012FC00224B1B68FA7992000F2101FA02F2D243B9
:10130C0011461E4A0B4013601C4B1B68B979FA79C5
:10131C00920001FA02F21146184A0B43136023E0C3
:10132C00FB790F2B20D8FB79083BFB71164B1B6804
:10133C00FA7992000F2101FA02F2D2431146124AB5
:10134C000B401360104B1B68B979FA79920001FAC3
:10135C0002F211460C4A0B43136005E000BF04E097
:10136C0000BF02E000BF00E000BF00BF1437BD4665
:10137C0080BC704700080140000C01400010014087
:10138C0004080140040C01400410014080B5ACB0CD
:10139C0000AF786039600023A7F8AE300023A7F8BF
:1013AC00AC300023C7F8A830334BC7F8A83031E075
:1013BC00D7F8A8207B689A4214BF01230023DAB225
:1013CC00D7F8A8301B68B3F1FF3F14BF01230023EB
:1013DC00DBB21340DBB2002B17D0B7F8AE309B005A
:1013EC00B0333B44D7F8A82043F8582CD7F8A820A2
:1013FC00B7F8AE3012689B00B0333B4443F8A82CCE
:10140C00B7F8AE300133A7F8AE30D7F8A8300433B4
:10141C00C7F8A830D7F8A830184A9342C8D93F204B
:10142C00FFF782FD0023A7F8AC3016E0B7F8AC301C
:10143C009B00B0333B4453F8582CB7F8AC309B00AE
:10144C00B0333B4453F8A83C19461046FFF779FDDE
:10145C00B7F8AC300133A7F8AC30B7F8AC20B7F81C
:10146C00AE309A42E2D339687868FFF76AFD00BF64
:10147C00B037BD4680BD00BF00FC00084FFC000823
:10148C0080B483B000AF03460A46FB711346BB71B0
:10149C00BB791F2B2AD8FB79022B1CD0022B25DC05
:1014AC00002B02D0012B0BD020E0134B1B68BA7918
:1014BC00012101FA02F211460F4A0B43136015E0A9
:1014CC000E4B1B68BA79012101FA02F211460B4A44
:1014DC000B4313600AE00A4B1B68BA79012101FA2D
:1014EC0002F21146064A0B43136000BF00BF0C37D3
:1014FC00BD4680BC704700BF141002401C10024057
:10150C001810024080B400AF0D4B80221A600D4BB6
:10151C0000221A600A4B1B68094A43F0010313604E
:10152C0000BF074B1B6803F00203002BF9D0054BDF
:10153C00044A1B68136000BFBD4680BC704700BFE7
:10154C00001002400410024080B400AF0A4B1B682C
:10155C00094A23F002031360084B45F255521A60F6
:10156C00074B01221A60054B4CF6CC421A6000BFA7
:10157C00BD4680BC704700BF0C30004000300040BE
:10158C000430004080B400AF034BBF221A6000BF90
:10159C00BD4680BC704700BF002C004080B500AF3A
:1015AC00FFF7B0FF02210220FFF76AFF062100209F
:1015BC00FFF766FF04210020FFF762FF19210120CD
:1015CC00FFF75EFF0A210C20FFF7E4FD04210B203E
:1015DC00FFF7E0FD06490748FFF728F905490648DB
:1015EC00FFF7B4F9FEF7ACFD0023184680BD00BF31
:1015FC0004000020006400401000002080B400AF04
:10160C00FEE780B400AFFEE780B400AFFEE780B425
:10161C0000AFFEE780B400AFFEE780B400AF00BFC0
:10162C00BD4680BC704780B400AF00BFBD4680BCD7
:10163C00704780B400AF00BFBD4680BC704780B51A
:10164C0000AF00F02FF800BF80BD80B400AF00BF2A
:10165C00BD4680BC70470000FFF7F7FF0B480C49F4
:10166C000C4A002302E0D458C4500433C4188C42F2
:10167C00F9D3094A094C002301E013600432A24259
:10168C00FBD300F021F8FFF789FF70470000002022
:10169C00380000203C170008380000205C040020B3
:1016AC00FEE7000080B400AF054B1B781A46054BD3
:1016BC001B681344034A136000BFBD4680BC7047CF
:1016CC00340000205804002070B500260C4D0D4C41
:1016DC00641BA410A64209D100F01AF800260A4D8A
:1016EC000A4C641BA410A64205D170BD55F8043BEE
:1016FC0098470136EEE755F8043B98470136F2E778
:10170C00341700083417000834170008381700087D
:10171C00F8B500BFF8BC08BC9E467047F8B500BFD2
:08172C00F8BC08BC9E467047A2
:041734003101000877
:041738000D01000897
:10173C0001000000010000100D020000000000007C
:10174C00A0CB000000000000A0CB000000000000B7
:10175C00000000000000000001000000010000007B
:08176C00000000000100000074
:040000050800166574
:00000001FF
