:020000040800F2
:1000000000000120191E0008BD1A0008C31A0008CC
:10001000C91A0008CF1A0008D51A0008000000000D
:10002000000000000000000000000000DB1A0008D3
:10003000E91A000800000000F71A0008051B000874
:10004000691E0008691E0008691E0008691E000874
:10005000691E0008691E0008691E0008691E000864
:10006000691E0008691E0008691E0008691E000854
:10007000691E0008691E0008691E0008691E000844
:10008000691E0008691E0008691E000800000000C3
:10009000000000000000000000000000691E0008D1
:1000A000691E0008691E0008691E0008111B00086F
:1000B000691E0008691E0008691E0008691E000804
:1000C000691E0008691E0008691E0008691E0008F4
:1000D000691E0008691E0008691E00080000000073
:1000E000251B0008691E0008691E000800000000AA
:1000F000000000000000000000000000691E000871
:1001000000000000691E0008691E0008691E000842
:1001100000000000000000000000000000000000DF
:10012000691E0008691E0008691E0008691E000893
:10013000691E000800000000000000000000000030
:10014000000000000000000000000000691E000820
:10015000691E0008691E0008691E0008691E000863
:10016000691E0008691E0008000000000000000071
:10017000000000000000000000000000000000007F
:1001800000000000691E00080000000000000000E0
:04019000691E0008DC
:1001980010B5054C237833B9044B13B10448AFF3B9
:1001A80000800123237010BD0C0000200000000017
:1001B800AC4B000808B5034B1BB103490348AFF328
:1001C800008008BD0000000010000020AC4B0008B3
:1001D80081F0004102E000BF83F0004330B54FEAF0
:1001E80041044FEA430594EA050F08BF90EA020F5D
:1001F8001FBF54EA000C55EA020C7FEA645C7FEAF0
:10020800655C00F0E2804FEA5454D4EB5555B8BF12
:100218006D420CDD2C4480EA020281EA030382EA83
:10022800000083EA010180EA020281EA0303362D15
:1002380088BF30BD11F0004F4FEA01314FF4801CE8
:100248004CEA113102D0404261EB410113F0004FFA
:100258004FEA03334CEA133302D0524263EB4303B1
:1002680094EA050F00F0A780A4F10104D5F1200E4F
:100278000DDB02FA0EFC22FA05F2801841F10001AA
:1002880003FA0EF2801843FA05F359410EE0A5F17E
:1002980020050EF1200E012A03FA0EFC28BF4CF0AF
:1002A800020C43FA05F3C01851EBE37101F0004565
:1002B80007D54FF0000EDCF1000C7EEB00006EEB72
:1002C8000101B1F5801F1BD3B1F5001F0CD34908FC
:1002D8005FEA30004FEA3C0C04F101044FEA445253
:1002E80012F5800F80F09A80BCF1004F08BF5FEADA
:1002F800500C50F1000041EB045141EA050130BDBA
:100308005FEA4C0C404141EB0101013C28BFB1F5CB
:10031800801FE9D291F0000F04BF01460020B1FA16
:1003280081F308BF2033A3F10B03B3F120020CDAE9
:100338000C3208DD02F1140CC2F10C0201FA0CF0C7
:1003480021FA02F10CE002F11402D8BFC2F1200C2C
:1003580001FA02F120FA0CFCDCBF41EA0C019040E2
:10036800E41AA2BF01EB0451294330BD6FEA04042B
:100378001F3C1CDA0C340EDC04F11404C4F1200216
:1003880020FA04F001FA02F340EA030021FA04F328
:1003980045EA030130BDC4F10C04C4F1200220FA7F
:1003A80002F001FA04F340EA0300294630BD21FABD
:1003B80004F0294630BD94F0000F83F4801306BF83
:1003C80081F480110134013D4EE77FEA645C18BF77
:1003D8007FEA655C29D094EA050F08BF90EA020F0E
:1003E80005D054EA000C04BF1946104630BD91EA06
:1003F800030F1EBF0021002030BD5FEA545C05D109
:100408004000494128BF41F0004130BD14F5800447
:100418003CBF01F5801130BD01F0004545F0FE41BB
:1004280041F470014FF0000030BD7FEA645C1ABFF0
:10043800194610467FEA655C1CBF0B46024650EA27
:10044800013406BF52EA033591EA030F41F4002153
:1004580030BD00BF90F0000F04BF0021704730B5D9
:100468004FF4806404F132044FF000054FF00001AE
:1004780050E700BF90F0000F04BF0021704730B56F
:100488004FF4806404F1320410F0004548BF404244
:100498004FF000013EE700BF42004FEAE2014FEA99
:1004A80031014FEA02701FBF12F07F4393F07F4F74
:1004B80081F06051704732F07F4208BF704793F077
:1004C8007F4F04BF41F40021704730B54FF460748A
:1004D80001F0004521F000411CE700BF50EA01028D
:1004E80008BF704730B54FF000050AE050EA010236
:1004F80008BF704730B511F0004502D5404261EBA6
:1005080041014FF4806404F132045FEA915C3FF4E6
:10051800D8AE4FF003025FEADC0C18BF03325FEA83
:10052800DC0C18BF033202EBDC02C2F1200300FA34
:1005380003FC20FA02F001FA03FE40EA0E0021FA59
:1005480002F11444BDE600BF70B54FF0FF0C4CF447
:10055800E06C1CEA11541DBF1CEA135594EA0C0FF9
:1005680095EA0C0F00F0DEF82C4481EA030621EA34
:100578004C5123EA4C5350EA013518BF52EA03356F
:1005880041F4801143F4801338D0A0FB02CE4FF021
:100598000005E1FB02E506F00042E0FB03E54FF051
:1005A8000006E1FB03569CF0000F18BF4EF0010E49
:1005B800A4F1FF04B6F5007F64F5407404D25FEA45
:1005C8004E0E6D4146EB060642EAC62141EA5551F8
:1005D8004FEAC52040EA5E504FEACE2EB4F1FD0C3A
:1005E80088BFBCF5E06F1ED8BEF1004F08BF5FEAB8
:1005F800500E50F1000041EB045170BD06F000466A
:1006080046EA010140EA020081EA0301B4EB5C0416
:10061800C2BFD4EB0C0541EA045170BD41F480110E
:100628004FF0000E013C00F3AB8014F1360FDEBF33
:10063800002001F0004170BDC4F10004203C35DA0F
:100648000C341BDC04F11404C4F1200500FA05F392
:1006580020FA04F001FA05F240EA020001F0004233
:1006680021F0004110EBD37021FA04F642EB0601A9
:100678005EEA430E08BF20EAD37070BDC4F10C04D3
:10068800C4F1200500FA04F320FA05F001FA04F297
:1006980040EA020001F0004110EBD37041F1000183
:1006A8005EEA430E08BF20EAD37070BDC4F120058E
:1006B80000FA05F24EEA020E20FA04F301FA05F2F6
:1006C80043EA020321FA04F001F0004121FA04F29E
:1006D80020EA020000EBD3705EEA430E08BF20EA6E
:1006E800D37070BD94F0000F0FD101F000464000A8
:1006F80041EB010111F4801F08BF013CF7D041EA2A
:10070800060195F0000F18BF704703F0004652002D
:1007180043EB030313F4801F08BF013DF7D043EAFE
:100728000603704794EA0C0F0CEA135518BF95EAB4
:100738000C0F0CD050EA410618BF52EA4306D1D13B
:1007480081EA030101F000414FF0000070BD50EA5A
:10075800410606BF1046194652EA430619D094EAE4
:100768000C0F02D150EA013613D195EA0C0F05D1CE
:1007780052EA03361CBF104619460AD181EA030122
:1007880001F0004141F0FE4141F470014FF00000DA
:1007980070BD41F0FE4141F4780170BD70B54FF075
:1007A800FF0C4CF4E06C1CEA11541DBF1CEA1355F5
:1007B80094EA0C0F95EA0C0F00F0A7F8A4EB0504D7
:1007C80081EA030E52EA03354FEA013100F08880CE
:1007D8004FEA03334FF0805545EA131343EA126397
:1007E8004FEA022245EA111545EA10654FEA00264C
:1007F8000EF000419D4208BF964244F1FD0404F505
:10080800407402D25B084FEA3202B61A65EB030560
:100818005B084FEA32024FF480104FF4002CB6EB1D
:10082800020E75EB030E22BFB61A754640EA0C009D
:100838005B084FEA3202B6EB020E75EB030E22BFDD
:10084800B61A754640EA5C005B084FEA3202B6EB1E
:10085800020E75EB030E22BFB61A754640EA9C00DD
:100868005B084FEA3202B6EB020E75EB030E22BFAD
:10087800B61A754640EADC0055EA060E18D04FEA6B
:10088800051545EA16754FEA06164FEAC30343EA0B
:1008980052734FEAC2025FEA1C1CC0D111F4801FD8
:1008A8000BD141EA00014FF000004FF0004CB6E7D1
:1008B80011F4801F04BF01430020B4F1FD0C88BF70
:1008C800BCF5E06F3FF6AFAEB5EB030C04BFB6EB7B
:1008D800020C5FEA500C50F1000041EB045170BD6E
:1008E8000EF0004E4EEA113114EB5C04C2BFD4EB9B
:1008F8000C0541EA045170BD41F480114FF0000E1F
:10090800013C90E645EA060E8DE60CEA135594EA9A
:100918000C0F08BF95EA0C0F3FF43BAF94EA0C0F9D
:100928000AD150EA01347FF434AF95EA0C0F7FF412
:1009380025AF104619462CE795EA0C0F06D152EA66
:1009480003353FF4FDAE1046194622E750EA41064A
:1009580018BF52EA43067FF4C5AE50EA41047FF45B
:100968000DAF52EA43057FF4EBAE12E74A0011D20D
:1009780012F5001211D20DD56FF47873B3EB6252F1
:100988000ED44FEAC12343F0004343EA505323FAFD
:1009980002F070474FF00000704750EA013002D172
:1009A8004FF0FF3070474FF00000704753B94AB915
:1009B800002908BF00281CBF4FF0FF314FF0FF305F
:1009C80000F070B9ADF1080C6DE904CE00F006F83E
:1009D800DDF804E0DDE9022304B070472DE9F047B3
:1009E800089E0D4604460F46002B4AD18A4294467B
:1009F80065D9B2FA82F343B102FA03FCC3F12002CB
:100A08009F4020FA02F217439C404FEA1C4E1FFAFF
:100A18008CF5B7FBFEF1220C0EFB117742EA074278
:100A280001FB05F090420AD91CEB020201F1FF37E5
:100A380080F01C81904240F2198102396244121AF6
:100A4800A4B2B2FBFEF00EFB102244EA024400FB03
:100A580005F5A5420AD91CEB040400F1FF3280F029
:100A68000781A54240F204816444023840EA01400B
:100A7800641B00211EB1DC400023C6E90043BDE829
:100A8800F0878B4208D9002E00F0ED800021C6E9DE
:100A980000050846BDE8F087B3FA83F1002949D17B
:100AA800AB4202D3824200F2F880841A65EB03025B
:100AB80001201746002EE2D0C6E90047DFE702B959
:100AC800FFDEB2FA82F3002B40F090808A1A4FEAD8
:100AD8001C471FFA8CFE0121B2FBF7F507FB152016
:100AE800220C42EA00420EFB05F0904208D91CEBAA
:100AF800020205F1FF3802D2904200F2CB8045464F
:100B0800121AA4B2B2FBF7F007FB102244EA02441F
:100B18000EFB00FEA64508D91CEB040400F1FF32C9
:100B280002D2A64500F2BB801046A4EB0E0440EAB0
:100B380005409FE7C1F120078B4022FA07FC4CEAE9
:100B4800030C05FA01F420FA07F3FD404FEA1C49AB
:100B58002343B5FBF9F81FFA8CFE09FB18551C0C4A
:100B680044EA054408FB0EF5A54202FA01F200FA30
:100B780001F00BD91CEB040408F1FF3A80F08880DF
:100B8800A54240F28580A8F102086444641B9DB226
:100B9800B4FBF9F309FB134445EA044403FB0EFED6
:100BA800A64508D91CEB040403F1FF356CD2A64511
:100BB8006AD9023B644443EA0843A3FB0295A4EBC9
:100BC8000E04AC42C846AE4656D353D056B1B0EB2D
:100BD800080264EB0E0404FA07F7CA40CC40174336
:100BE800C6E9007418460021BDE8F087C3F120016A
:100BF80002FA03FC20FA01F225FA01F19D402A438A
:100C08004FEA1C471FFA8CFEB1FBF7F007FB1015E3
:100C1800110C41EA054100FB0EF58D4204FA03F47C
:100C280008D91CEB010100F1FF382FD28D422DD9D4
:100C380002386144491B92B2B1FBF7F507FB151165
:100C480042EA014205FB0EF1914208D91CEB02026F
:100C580005F1FF3816D2914214D9023D6244521A66
:100C680045EA004138E73146304608E73946E6E6C6
:100C78001046FBE64845A9D2B9EB020865EB0C0E15
:100C8800013BA3E74546EAE72B4694E74046D1E710
:100C9800D0467BE7023D624432E708460AE76444EF
:100CA800023842E7704700BF80B500AF00F02EF869
:100CB800012000F0B7F900F0C9F800BF80BD0000BE
:100CC80080B582B000AF502000F084F800F084F9BD
:100CD8000346FB7100F0AEF80346BB71FB790A2BA3
:100CE80005D800F090F84FF47A7001F02DF9064A13
:100CF800FB791370044ABB795370034800F0B4F9C8
:100D080000BF0837BD4680BD2800002080B500AF71
:100D18000021044802F068FE0421024802F064FE43
:100D280000BF80BDF000002080B582B000AF034650
:100D3800FB710B46BB7113467B71FB79012B1FD1ED
:100D4800224B1B68BA795A637B79002B0AD101229E
:100D580010211F4801F0B2FB002220211C4801F09D
:100D6800ADFB2FE07B79012B2CD1002210211848F4
:100D780001F0A4FB01222021154801F09FFB21E08E
:100D8800FB79022B1ED1114B1B68BA799A637B79C8
:100D9800002B0AD1012240210D4801F08FFB0022CF
:100DA80080210B4801F08AFB0CE07B79012B09D1EB
:100DB80000224021064801F081FB012280210448DD
:100DC80001F07CFB00BF0837BD4680BDF000002065
:100DD8000000024080B582B000AF7860786800F00B
:100DE80019F87B68DBB2002219460120FFF79CFF47
:100DF8007B68DBB2002219460220FFF795FF00BF8F
:100E08000837BD4680BD80B500AF0020FFF7E2FF80
:100E180000BF80BD80B483B000AF7860044A7B68AF
:100E2800136000BF0C37BD465DF8047B704700BFF8
:100E38003000002080B400AF034B1B681846BD4645
:100E48005DF8047B704700BF3000002080B500AF1C
:100E58000021024802F0C8FE00BF80BDA8000020A3
:100E680080B483B000AF0346FB80094B1B680022A7
:100E78005A6200BF064B1B685A6AFB889A42F9D32C
:100E880000BF00BF0C37BD465DF8047B704700BF4C
:100E9800A80000200000000080B582B000AF786094
:100EA8007B681B7F012B40F08380454B1B78002B10
:100EB8001AD10021786803F0FFF90346414A13600C
:100EC8003F4B01221A707B681B681A6A7B681B6893
:100ED80022F00A021A627B681B681A6A7B681B6820
:100EE80042F002021A6263E0354B1B78012B5FD196
:100EF8000021786803F0E0F90346334A13607B6801
:100F08001B6800225A62304B1A682E4B1B689A42A3
:100F180007D92D4B1A682B4B1B68D31A2B4A136021
:100F28000FE0284B1A68284B1B689A4209D9264BB0
:100F38001A68244B1B68D31A03F57F43FF33234AEF
:100F48001360224B1B681846FFF784FA1AA3D3E9EB
:100F58000023FFF7F9FA02460B46104619464FF0F0
:100F680000024FF08043FFF719FC02460B4610467B
:100F78001946FFF7FBFC0346DAB2154B1A70104B03
:100F880000221A707B681B681A6A7B681B6822F04B
:100F98000A021A627B681A687B681B68126A1A62FE
:100FA8000C4B1B68DA680B4B1B6822F00202DA60F4
:100FB80000BF0837BD4680BD9CC420B07268A13F01
:100FC8004000002034000020380000203C000020B1
:100FD80041000020A800002080B500AF01224FF496
:100FE80000710D4801F06AFA0A20FFF739FF002264
:100FF8004FF40071084801F061FA084B1B68DA6881
:10100800064B1B6842F00202DA60C82000F09CFF21
:10101800034B1B78184680BD00000240A800002042
:101028004100002080B582B000AF0346FB71FB7918
:10103800002B08D1002140F6C41000F0B7F9094B85
:1010480000221A700AE0FB79012B07D1002140F633
:10105800C41000F0D9F9034B01221A7000BF0837F9
:10106800BD4680BD4C00002080B582B000AF7860DE
:10107800786800F009FA642000F066FF00BF0837BE
:10108800BD4680BD80B582B000AF0346FB80FB88BB
:10109800B3F5806F10D10A4B1B78002B06D1094895
:1010A80000F0DEF9084B01221A7005E0044B1B78AA
:1010B800012B01D100F0F4F900BF0837BD4680BD0F
:1010C8004C000020440000204200002080B588B079
:1010D80000AF07F10C0300221A605A609A60DA60C8
:1010E8001A610023BB602F4B1B6B2E4A43F0010390
:1010F80013632C4B1B6B03F00103BB60BB6800231D
:101108007B60284B1B6B274A43F002031363254B74
:101118001B6B03F002037B607B6800224FF43C7179
:10112800214801F0CBF900224FF440511F4801F04B
:10113800C5F94FF43C73FB6001233B6100237B61DD
:101148000023BB6107F10C031946174801F032F878
:101158004FF44053FB6001233B6100237B61002374
:10116800BB6107F10C031946104801F023F84FF44E
:101178008063FB604FF488133B6100237B6107F1B8
:101188000C031946084801F015F800220021282010
:1011980000F0D9FF282000F0F2FF00BF2037BD463D
:1011A80080BD00BF00380240000002400004024039
:1011B80080B500AF00F056FE00F00EF8FFF786FF8E
:1011C80000F01CFD00F0D0FB00F0C2FCFFF76CFD46
:1011D800FFF776FDFCE7000080B594B000AF07F19B
:1011E800200330220021184603F0B0FC07F10C035D
:1011F80000221A605A609A60DA601A610023BB60A4
:10120800234B1B6C224A43F080531364204B1B6C06
:1012180003F08053BB60BB6800237B601D4B1B68D9
:1012280023F440431B4A43F400431360194B1B68E3
:1012380003F440437B607B6802233B620123FB622B
:1012480010233B630023BB6307F12003184601F01A
:1012580081F90346002B01D000F01EF80F23FB6034
:1012680000233B6100237B610023BB610023FB61FA
:1012780007F10C030021184601F0E4FB0346002B9C
:1012880001D000F009F800BF5037BD4680BD00BF4F
:10129800003802400070004080B400AF72B600BF52
:1012A800FEE7000080B500AF01224FF4005102486C
:1012B80001F004F900BF80BD0004024080B500AF12
:1012C80000224FF40051024801F0F8F800BF80BD39
:1012D8000004024080B500AF01224FF4805102485B
:1012E80001F0ECF800BF80BD0004024080B500AFFB
:1012F80000224FF48051024801F0E0F800BF80BDA1
:101308000004024080B586B002AF0346FB71FB794A
:10131800FB73FFF7D3FF07F10E0207F10F014FF43C
:10132800FA6300930123094802F01CF807F10D0144
:101338004FF4FA630122054801F0FCFEFFF7B2FF03
:101348007B7B18461037BD4680BD00BF500000208B
:1013580080B586B002AF03460A46FB711346BB71DF
:10136800FB7943F02003DBB2FB73BB797B73FFF798
:10137800A5FF07F10E0207F10F014FF4FA6300937E
:101388000123094801F0EEFF07F10D014FF4FA635C
:101398000122054801F08BFDFFF784FF7B7B18468F
:1013A8001037BD4680BD00BF5000002080B582B018
:1013B80000AF03460A46FB8013467B7100F094F8A1
:1013C80000F0E6F800F0EAF9082000F09DF9FB8843
:1013D800184600F06FFA7B79184600F09BFA032054
:1013E80000F07BFA012000F0EEF9052000F00EFA7B
:1013F800032000F01BFAFA2000F034FAFFF76AFF26
:1014080000BF0837BD4680BD80B582B000AF034637
:101418000A46FB8013467B7100F066F800F0CDF8B1
:1014280000F0BCF9FB88184600F044FA7B791846AE
:1014380000F070FA032000F050FA012000F0C3F920
:10144800052000F0E3F9032000F0F0F9FA2000F09D
:1014580009FAFFF73FFF00BF0837BD4680BD00000F
:1014680080B582B000AF7860786800F0BBF800F013
:1014780059F94FF40051034801F039F800BF083713
:10148800BD4680BD0008024080B582B000AF7860DC
:10149800786800F0CBF800BF0837BD4680BD000073
:1014A80080B582B000AF00F015F90346FB71FB79F7
:1014B80003F02003FB71FB79002B07D04FF4005198
:1014C800084801F014F800F041F907E001224FF450
:1014D8000051044800F0F2FF00F04CF900BF083753
:1014E800BD4680BD0008024080B500AFFFF7DAFEB8
:1014F800FFF7FCFE08210020FFF72AFF3F2101200B
:10150800FFF726FF03210220FFF722FF0321032014
:10151800FFF71EFF03210420FFF71AFF0221052011
:10152800FFF716FF07210620FFF712FF7E2107208D
:10153800FFF70EFF00211120FFF70AFF00211120FD
:10154800FFF706FF00211220FFF702FF00211320FA
:10155800FFF7FEFE00211420FFF7FAFE00211520F8
:10156800FFF7F6FE00211620FFF7F2FE11211720E3
:10157800FFF7EEFE00211C20FFF7EAFE00211D20E8
:10158800FFF7E6FE00F076F800F08CF800BF80BDAB
:1015980080B582B000AF0020FFF7B4FE0346FB71B0
:1015A800FB7943F00103FB71FB7919460020FFF733
:1015B800CFFE00BF0837BD4680BD80B582B000AF02
:1015C8000020FFF79FFE0346FB71FB7923F0010320
:1015D800FB71FB7919460020FFF7BAFE00BF0837F8
:1015E800BD4680BD80B586B002AF78606123FB73CD
:1015F800FFF764FE07F10E0207F10F014FF4FA63DB
:1016080000930123084801F0ADFE4FF4FA63082265
:101618007968054801F08EFDFFF744FEBB7B18464C
:101628001037BD4680BD00BF5000002080B586B091
:1016380002AF7860A023FB73FFF740FE07F10E02AC
:1016480007F10F014FF4FA6300930123084801F0F2
:1016580089FE4FF4FA6308227968054801F027FCEF
:10166800FFF720FEBB7B18461037BD4680BD00BF84
:101678005000002080B584B002AFE223FB71FFF771
:101688001DFEBA1DF91D4FF4FA63009301230448A7
:1016980001F068FEFFF706FE00BF0837BD4680BDB3
:1016A8005000002080B584B002AFE123FB71FFF742
:1016B80005FEBA1DF91D4FF4FA630093012304488F
:1016C80001F050FEFFF7EEFD00BF0837BD4680BDB4
:1016D8005000002080B584B002AFFF23FB71FFF7F4
:1016E800EDFDBA1DF91D4FF4FA6300930123054877
:1016F80001F038FEFFF7D6FDBB7918460837BD461E
:1017080080BD00BF5000002080B582B000AF034606
:10171800FB71FB7919461120FFF71AFE00BF083745
:10172800BD4680BD80B582B000AFFFF7D3FF03464A
:10173800FB71FB7943F04003FB71FB7919460720E5
:10174800FFF706FE00BF0837BD4680BD80B582B0F2
:1017580000AFFFF7BFFF0346FB71FB7943F020039F
:10176800FB71FB7919460720FFF7F2FD00BF083728
:10177800BD4680BD80B582B000AFFFF7ABFF034622
:10178800FB71FB7943F01003FB71FB7919460720C5
:10179800FFF7DEFD00BF0837BD4680BD80B582B0CB
:1017A80000AF0020FFF7AEFD0346FB71FB7943F065
:1017B8000203FB71FB7919460020FFF7C9FD00BF42
:1017C8000837BD4680BD80B584B000AF0346FB71C5
:1017D8000020FFF797FD0346FB73FB79012B02D02E
:1017E800022B05D009E0FB7B23F00403FB7304E024
:1017F800FB7B43F00403FB7300BFFB7B194600200F
:10180800FFF7A6FD00BF1037BD4680BD80B582B08A
:1018180000AF0346FB71FB79023BDBB2194603209C
:10182800FFF796FD00BF0837BD4680BD80B584B080
:1018380000AF0346FB710420FFF764FD0346FB730A
:10184800FB7B63F00F03FB73FA7BFB791343FB739A
:10185800FB7B19460420FFF77BFD00BF1037BD4610
:1018680080BD000080B584B000AF0346FB80042033
:10187800FFF748FD0346FB73FB7B43F00F03FB7345
:10188800FB880B4AA2FB03231B099BB2013B1B01EC
:101898005AB297F90F3013435BB2FB73FB7B1946BF
:1018A8000420FFF755FD00BF1037BD4680BD00BFBF
:1018B800D34D621080B584B000AF0346FB80FB882F
:1018C800A3F51663FB81FB89DBB219460520FFF7F8
:1018D8003FFD00BF1037BD4680BD80B584B000AF66
:1018E8000346FB710620FFF70DFD034623F00603B0
:1018F800FB73FB795B005AB297F90F3013435BB265
:10190800FB73FB7B19460620FFF722FD00BF10374B
:10191800BD4680BD80B584B000AF0346FB7106208C
:10192800FFF7F0FC034623F02803FB73FB79022B37
:101938000AD0022B0EDC002B0BD0012B0AD1FB7B2B
:1019480043F00803FB7305E0FB7B43F02003FB73C4
:1019580000E000BFFB7B19460620FFF7F9FC00BF3B
:101968001037BD4680BD000080B500AF174B184A40
:101978001A60164B4FF482725A60144B00229A6018
:10198800124B0022DA60114B00221A610F4B002221
:101998005A610E4B4FF400729A610C4B1022DA61B7
:1019A8000A4B00221A62094B00225A62074B002296
:1019B8009A62064B0A22DA62044801F0EFF90346FC
:1019C800002B01D0FFF768FC00BF80BD500000204D
:1019D8000038004080B58AB000AF786007F1140382
:1019E80000221A605A609A60DA601A617B681B6884
:1019F800194A93422CD100233B61184B1B6C174AA0
:101A080043F480431364154B1B6C03F480433B6120
:101A18003B690023FB60114B1B6B104A43F0020328
:101A280013630E4B1B6B03F00203FB60FB684FF460
:101A380044437B610223BB610023FB6103233B62B8
:101A480005237B6207F114031946054800F0B2FB31
:101A580000BF2837BD4680BD00380040003802402E
:101A68000004024080B483B000AF00237B60104BB9
:101A78005B6C0F4A43F4804353640D4B5B6C03F477
:101A880080437B607B6800233B60094B1B6C084AE2
:101A980043F080531364064B1B6C03F080533B6088
:101AA8003B6800BF0C37BD465DF8047B704700BF3C
:101AB8000038024080B400AFFEE780B400AFFEE714
:101AC80080B400AFFEE780B400AFFEE780B400AF9B
:101AD800FEE780B400AF00BFBD465DF8047B7047E9
:101AE80080B400AF00BFBD465DF8047B704780B48A
:101AF80000AF00BFBD465DF8047B704780B500AFFE
:101B080000F002FA00BF80BD80B500AF024802F0C5
:101B180085F900BF80BD00BFA800002080B500AFD8
:101B28004FF4806000F0FEFC00BF80BD80B400AFC1
:101B3800064BD3F88830054A43F47003C2F888305E
:101B480000BFBD465DF8047B704700BF00ED00E0B4
:101B580080B586B000AF07F1100300221A605A6002
:101B68003B4600221A605A609A60DA60214B224A8A
:101B78001A60204B0F225A601E4B00229A601D4BA0
:101B88004FF6FE72DA601B4B00221A61194B0022D5
:101B98005A61184B00229A61164801F0D5FF034696
:101BA800002B01D0FFF778FB00233B6100237B610A
:101BB80007F1100319460F4802F046FF0346002BB1
:101BC80001D0FFF769FB00233B6001237B60002302
:101BD800BB600023FB603B4600221946054802F023
:101BE8000DFA0346002B01D0FFF756FB00BF18374C
:101BF800BD4680BDA80000200000014080B58AB025
:101C080000AF07F1200300221A605A603B1D002232
:101C18001A605A609A60DA601A615A619A61274BB1
:101C28004FF080421A60254B0F225A60234B002246
:101C38009A60224B6322DA60204B00221A611F4B04
:101C480000229A611D4801F07FFE0346002B01D057
:101C5800FFF722FB00233B6200237B6207F120038E
:101C68001946164802F0F0FE0346002B01D0FFF794
:101C780013FB60237B600023BB600023FB60002311
:101C88007B613B1D002219460C4802F053FA0346BB
:101C9800002B01D0FFF700FB3B1D04221946074823
:101CA80002F048FA0346002B01D0FFF7F5FA034883
:101CB80000F076F800BF2837BD4680BDF000002050
:101CC80080B58AB000AF786007F1140300221A606B
:101CD8005A609A60DA601A617B681B681D4A9342F1
:101CE80034D100233B611C4B5B6C1B4A43F001035E
:101CF8005364194B5B6C03F001033B613B690023A0
:101D0800FB60154B1B6B144A43F001031363124B22
:101D18001B6B03F00103FB60FB684FF480737B616E
:101D28000223BB610023FB6100233B6201237B622A
:101D380007F114031946094800F03CFA0022002173
:101D48001B2000F000FA1B2000F019FA00BF28370A
:101D5800BD4680BD0000014000380240000002403E
:101D680080B485B000AF78607B681B68B3F1804FA2
:101D78000DD10023FB60094B1B6C084A43F001039B
:101D88001364064B1B6C03F00103FB60FB6800BF88
:101D98001437BD465DF8047B704700BF0038024029
:101DA80080B588B000AF786007F10C0300221A6094
:101DB8005A609A60DA601A617B681B68B3F1804FD9
:101DC8001DD10023BB60104B1B6B0F4A43F001036E
:101DD80013630D4B1B6B03F00103BB60BB6803234C
:101DE800FB6002233B6100237B610023BB6101236D
:101DF800FB6107F10C031946044800F0DBF900BF4A
:101E08002037BD4680BD00BF0038024000000240B8
:101E1800DFF834D0FFF78AFE0C480D490D4A00233D
:101E280002E0D458C4500433C4188C42F9D30A4A87
:101E38000A4C002301E013600432A242FBD302F0F3
:101E48008DFEFFF7B5F97047000001200000002063
:101E58000C000020E44B00080C0000203C0100208E
:101E6800FEE7000080B500AF0E4B1B680D4A43F437
:101E7800007313600B4B1B680A4A43F480631360BA
:101E8800084B1B68074A43F480731360032000F073
:101E98004FF90F2000F008F8FFF7E4FD002318467B
:101EA80080BD00BF003C024080B582B000AF7860C2
:101EB800124B1A68124B1B7819464FF47A73B3FB0E
:101EC800F1F3B2FBF3F3184600F067F90346002B71
:101ED80001D001230EE07B680F2B0AD80022796815
:101EE8004FF0FF3000F02FF9064A7B68136000239B
:101EF80000E0012318460837BD4680BD00000020D9
:101F0800080000200400002080B400AF064B1B78B6
:101F18001A46064B1B681344044A136000BFBD46AB
:101F28005DF8047B704700BF0800002038010020DE
:101F380080B400AF034B1B681846BD465DF8047BB0
:101F4800704700BF3801002080B584B000AF7860CA
:101F5800FFF7EEFFB8607B68FB60FB68B3F1FF3FFB
:101F680005D00A4B1B781A46FB681344FB6000BF78
:101F7800FFF7DEFF0246BB68D31AFA689A42F7D821
:101F880000BF00BF1037BD4680BD00BF080000205D
:101F980080B485B000AF78607B6803F00703FB600E
:101FA8000C4BDB68BB60BA684FF6FF031340BB609D
:101FB800FB681A02BB68134343F0BF6343F4003362
:101FC800BB60044ABB68D36000BF1437BD465DF8E8
:101FD800047B704700ED00E080B400AF044BDB6881
:101FE8001B0A03F007031846BD465DF8047B7047DB
:101FF80000ED00E080B483B000AF0346FB7197F9B1
:102008000730002B0BDBFB7903F01F02074997F918
:1020180007305B09012000FA02F241F8232000BFD3
:102028000C37BD465DF8047B704700BF00E100E057
:1020380080B483B000AF03463960FB7197F907306D
:10204800002B0ADB3B68DAB20C4997F9073012011A
:10205800D2B20B4483F800230AE03B68DAB208499D
:10206800FB7903F00F03043B1201D2B20B441A763A
:1020780000BF0C37BD465DF8047B704700E100E007
:1020880000ED00E080B489B000AFF860B9607A6014
:10209800FB6803F00703FB61FB69C3F10703042B2B
:1020A80028BF0423BB61FB690433062B02D9FB69F3
:1020B800033B00E000237B614FF0FF32BB6902FA6B
:1020C80003F3DA43BB681A407B699A404FF0FF314B
:1020D8007B6901FA03F3D9437B680B401343184625
:1020E8002437BD465DF8047B7047000080B582B098
:1020F80000AF78607B68013BB3F1807F01D3012397
:102108000FE00A4A7B68013B53600F214FF0FF3014
:10211800FFF78EFF054B00229A60044B07221A60D6
:10212800002318460837BD4680BD00BF10E000E018
:1021380080B582B000AF78607868FFF729FF00BFEC
:102148000837BD4680BD80B586B000AF0346B9608C
:102158007A60FB7300237B61FFF73EFF78617A6842
:10216800B9687869FFF78EFF024697F90F30114674
:102178001846FFF75DFF00BF1837BD4680BD80B524
:1021880082B000AF0346FB7197F907301846FFF796
:1021980031FF00BF0837BD4680BD80B582B000AFB3
:1021A80078607868FFF7A2FF034618460837BD46EF
:1021B80080BD000080B489B000AF7860396000232A
:1021C8007B6100233B610023BB610023FB6159E174
:1021D8000122FB6902FA03F37B613B681B687A6999
:1021E80013403B613A697B699A4240F048813B68F9
:1021F8005B6803F00303012B05D03B685B6803F0C1
:102208000303022B30D17B689B68BB61FB695B00D1
:10221800032202FA03F3DB43BA691340BB613B684C
:10222800DA68FB695B0002FA03F3BA691343BB611E
:102238007B68BA699A607B685B68BB610122FB694D
:1022480002FA03F3DB43BA691340BB613B685B687E
:102258001B0903F00102FB6902FA03F3BA6913438D
:10226800BB617B68BA695A603B685B6803F003032B
:10227800032B17D07B68DB68BB61FB695B0003221B
:1022880002FA03F3DB43BA691340BB613B689A68FF
:10229800FB695B0002FA03F3BA691343BB617B680D
:1022A800BA69DA603B685B6803F00303022B23D149
:1022B800FB69DA087B68083253F82230BB61FB6996
:1022C80003F007039B000F2202FA03F3DB43BA690A
:1022D8001340BB613B681A69FB6903F007039B0065
:1022E80002FA03F3BA691343BB61FB69DA087B6836
:1022F8000832B96943F822107B681B68BB61FB6927
:102308005B00032202FA03F3DB43BA691340BB61A3
:102318003B685B6803F00302FB695B0002FA03F3A6
:10232800BA691343BB617B68BA691A603B685B682A
:1023380003F44033002B00F0A2800023FB60574BCE
:102348005B6C564A43F480435364544B5B6C03F410
:102358008043FB60FB68524AFB699B08023352F8D2
:102368002330BB61FB6903F003039B000F2202FAD1
:1023780003F3DB43BA691340BB617B68494A934264
:1023880019D07B68484A934213D07B68474A9342E6
:102398000DD07B68464A934207D07B68454A9342F2
:1023A80001D1042308E0072306E0032304E0022305
:1023B80002E0012300E00023FA6902F00302920020
:1023C8009340BA691343BB613549FB699B080233E3
:1023D800BA6941F82320384B9B68BB613B69DB43F2
:1023E800BA691340BB613B685B6803F48013002B38
:1023F80003D0BA693B691343BB612F4ABB69936039
:102408002D4BDB68BB613B69DB43BA691340BB6199
:102418003B685B6803F40013002B03D0BA693B697F
:102428001343BB61244ABB69D360234B5B68BB6120
:102438003B69DB43BA691340BB613B685B6803F4E3
:102448000033002B03D0BA693B691343BB611A4AB6
:10245800BB695360184B1B68BB613B69DB43BA69B6
:102468001340BB613B685B6803F48033002B03D0E7
:10247800BA693B691343BB610F4ABB691360FB69C7
:102488000133FB61FB690F2B7FF6A2AE00BF00BFD3
:102498002437BD465DF8047B704700BF0038024012
:1024A80000380140000002400004024000080240D9
:1024B800000C024000100240003C014080B483B090
:1024C80000AF78600B467B8013467B707B78002BCF
:1024D80003D07A887B689A6103E07B881A047B685A
:1024E8009A6100BF0C37BD465DF8047B704780B425
:1024F80085B000AF78600B467B807B685B69FB60CA
:102508007A88FB6813401A04FB68D9437B880B4020
:102518001A437B689A6100BF1437BD465DF8047B97
:102528007047000080B582B000AF0346FB80084BBF
:102538005A69FB881340002B06D0054AFB88536173
:10254800FB881846FEF79EFD00BF0837BD4680BDD4
:10255800003C014080B586B000AF78607B68002BF6
:1025680001D1012367E27B681B6803F00103002B9C
:1025780075D0884B9B6803F00C03042B0CD0854B5B
:102588009B6803F00C03082B12D1824B5B6803F4A1
:102598008003B3F5800F0BD17E4B1B6803F4003327
:1025A800002B5BD07B685B68002B57D1012342E28C
:1025B8007B685B68B3F5803F06D1764B1B68754A2C
:1025C80043F4803313601DE07B685B68B3F5A02F8C
:1025D8000CD1704B1B686F4A43F4802313606D4B1A
:1025E8001B686C4A43F4803313600BE0694B1B682B
:1025F800684A23F480331360664B1B68654A23F4EA
:10260800802313607B685B68002B13D0FFF790FC76
:10261800386108E0FFF78CFC02463B69D31A642B4B
:1026280001D9032307E25B4B1B6803F40033002B3B
:10263800F0D014E0FFF77CFC386108E0FFF778FC85
:1026480002463B69D31A642B01D90323F3E1514BAA
:102658001B6803F40033002BF0D100E000BF7B6857
:102668001B6803F00203002B63D04A4B9B6803F0FE
:102678000C03002B0BD0474B9B6803F00C03082B73
:102688001CD1444B5B6803F48003002B16D1414BEB
:102698001B6803F00203002B05D07B68DB68012B65
:1026A80001D00123C7E13B4B1B6823F0F8027B688C
:1026B8001B69DB00374913430B603AE07B68DB6832
:1026C800002B20D0344B01221A60FFF731FC38610F
:1026D80008E0FFF72DFC02463B69D31A022B01D90B
:1026E8000323A8E12B4B1B6803F00203002BF0D057
:1026F800284B1B6823F0F8027B681B69DB0025491F
:1027080013430B6015E0244B00221A60FFF710FCFE
:10271800386108E0FFF70CFC02463B69D31A022B2C
:1027280001D9032387E11B4B1B6803F00203002B2D
:10273800F0D17B681B6803F00803002B36D07B6858
:102748005B69002B16D0154B01221A60FFF7F0FBCE
:10275800386108E0FFF7ECFB02463B69D31A022B0D
:1027680001D9032367E10B4B5B6F03F00203002BD6
:10277800F0D01BE0094B00221A60FFF7D9FB386143
:102788000EE0FFF7D5FB02463B69D31A022B07D9A7
:10279800032350E10038024000004742800E4742C0
:1027A800884B5B6F03F00203002BEAD17B681B6840
:1027B80003F00403002B00F097800023FB75814B86
:1027C8001B6C03F08053002B0FD10023BB607D4BA3
:1027D8001B6C7C4A43F0805313647A4B1B6C03F0E8
:1027E8008053BB60BB680123FB75774B1B6803F400
:1027F8008073002B18D1744B1B68734A43F48073A1
:102808001360FFF795FB386108E0FFF791FB02467C
:102818003B69D31A022B01D903230CE16A4B1B68CD
:1028280003F48073002BF0D07B689B68012B06D1E2
:10283800644B1B6F634A43F0010313671CE07B681A
:102848009B68052B0CD15F4B1B6F5E4A43F004035A
:1028580013675C4B1B6F5B4A43F0010313670BE084
:10286800584B1B6F574A23F001031367554B1B6FD7
:10287800544A23F0040313677B689B68002B15D028
:10288800FFF756FB38610AE0FFF752FB02463B6947
:10289800D31A41F28832934201D90323CBE0494B42
:1028A8001B6F03F00203002BEED014E0FFF740FB90
:1028B80038610AE0FFF73CFB02463B69D31A41F254
:1028C8008832934201D90323B5E03E4B1B6F03F0D6
:1028D8000203002BEED1FB7D012B05D1394B1B6C7C
:1028E800384A23F0805313647B689B69002B00F0FF
:1028F800A180344B9B6803F00C03082B5CD07B68E9
:102908009B69022B41D1314B00221A60FFF710FB63
:10291800386108E0FFF70CFB02463B69D31A022B2B
:1029280001D9032387E0274B1B6803F00073002BB2
:10293800F0D17B68DA697B681B6A1A437B685B6A3B
:102948009B011A437B689B6A5B08013B1B041A4383
:102958007B68DB6A1B061B4913434B601B4B012238
:102968001A60FFF7E5FA386108E0FFF7E1FA024676
:102978003B69D31A022B01D903235CE0114B1B6876
:1029880003F00073002BF0D054E0104B00221A60C3
:10299800FFF7CEFA386108E0FFF7CAFA02463B694A
:1029A800D31A022B01D9032345E0064B1B6803F019
:1029B8000073002BF0D13DE07B689B69012B07D1A8
:1029C800012338E0003802400070004060004742B0
:1029D8001B4B5B68FB607B689B69012B28D0FB68FD
:1029E80003F480027B68DB699A4221D1FB6803F01B
:1029F8003F027B681B6A9A421AD1FA6847F6C0738D
:102A080013407A68526A9201934211D1FB6803F429
:102A180040327B689B6A5B08013B1B049A4207D1E2
:102A2800FB6803F070627B68DB6A1B069A4201D080
:102A3800012300E0002318461837BD4680BD00BFBB
:102A48000038024080B584B000AF786039607B6898
:102A5800002B01D10123CCE0684B1B6803F007036E
:102A68003A689A420CD9654B3A68D2B21A70634BED
:102A78001B6803F007033A689A4201D00123B8E0C3
:102A88007B681B6803F00203002B20D07B681B685F
:102A980003F00403002B05D0594B9B68584A43F4B4
:102AA800E05393607B681B6803F00803002B05D094
:102AB800534B9B68524A43F460439360504B9B6866
:102AC80023F0F0027B689B684D4913438B607B6859
:102AD8001B6803F00103002B44D07B685B68012B63
:102AE80007D1474B1B6803F40033002B19D101238E
:102AF8007FE07B685B68022B03D07B685B68032BF5
:102B080007D13F4B1B6803F00073002B09D1012349
:102B18006FE03B4B1B6803F00203002B01D101233C
:102B280067E0374B9B6823F003027B685B68344996
:102B380013438B60FFF7FCF9F8600AE0FFF7F8F938
:102B48000246FB68D31A41F28832934201D9032323
:102B58004FE02B4B9B6803F00C027B685B689B0083
:102B68009A42EBD1254B1B6803F007033A689A4257
:102B78000CD2224B3A68D2B21A70204B1B6803F071
:102B880007033A689A4201D0012332E07B681B6848
:102B980003F00403002B08D0194B9B6823F4E05280
:102BA8007B68DB68164913438B607B681B6803F0FE
:102BB8000803002B09D0124B9B6823F460427B6802
:102BC8001B69DB000E4913438B6000F021F80246B5
:102BD8000B4B9B681B0903F00F030A49CB5C22FAD5
:102BE80003F3094A1360094B1B681846FFF75CF9A1
:102BF800002318461037BD4680BD00BF003C024088
:102C080000380240C44B00080000002004000020E7
:102C18002DE9B04F90B000AF00237B630023FB6326
:102C280000233B630023BB63594B9B6803F00C03F1
:102C3800082B0DD0082B00F2A180002B02D0042B0A
:102C480003D09BE0534BBB639BE0534BBB6398E0C3
:102C58004F4B5B6803F03F037B634D4B5B6803F4AA
:102C68008003002B28D04A4B5B689B0900223B62FB
:102C78007A623B6AC3F308000021474B03FB01F269
:102C8800002300FB03F31344434AA0FB0212FA6239
:102C98000A46BA62FA6A1344FB627B6B0022BB6184
:102CA800FA61D7E90623D7E90A01FDF77FFE024654
:102CB8000B461346FB6353E0354B5B689B090022C8
:102CC8003B617A613B69C3F3080A4FF0000B524637
:102CD8005B464FF000004FF00001590141EAD26114
:102CE800500102460B46B2EB0A0863EB0B094FF0A2
:102CF80000024FF000034FEA891343EA98634FEA52
:102D08008812B2EB080463EB09054FF000024FF09C
:102D18000003EB0043EA5473E20014461D4614EB2B
:102D28000A033B6045EB0B037B604FF000024FF05A
:102D38000003D7E9004529468B02214643EA91530F
:102D480021468A02104619467B6B0022BB60FA6056
:102D5800D7E90223FDF72AFE02460B461346FB631A
:102D68000B4B5B681B0C03F0030301335B003B63F5
:102D7800FA6B3B6BB2FBF3F3BB6302E0054BBB633F
:102D880000BFBB6B18464037BD46BDE8B08F00BFDB
:102D9800003802400024F40040787D0180B582B0FC
:102DA80000AF78607B68002B01D101237BE07B6852
:102DB8005B6A002B08D17B685B68B3F5827F09D01A
:102DC8007B680022DA6105E07B6800221A617B6873
:102DD80000225A617B6800229A627B6893F851301E
:102DE800DBB2002B06D17B68002283F8502078687C
:102DF800FEF7F0FD7B68022283F851207B681B6890
:102E08001A687B681B6822F040021A607B685B685E
:102E180003F482727B689B6803F404431A437B685B
:102E2800DB6803F400631A437B681B6903F0020341
:102E38001A437B685B6903F001031A437B689B694B
:102E480003F400731A437B68DB6903F038031A4301
:102E58007B681B6A03F0800342EA03017B689B6A74
:102E680003F400527B681B680A431A607B689B69FD
:102E78001B0C03F004017B685B6A03F010027B689B
:102E88001B680A435A607B681B68DA697B681B68A1
:102E980022F40062DA617B6800225A657B680122AD
:102EA80083F85120002318460837BD4680BD80B5F9
:102EB80088B000AFF860B9603B601346FB80002320
:102EC800FB77FB6893F85030012B01D102232DE1E9
:102ED800FB68012283F85020FFF72AF8B861FB88C5
:102EE800FB82FB6893F85130DBB2012B02D002233E
:102EF800FB7716E1BB68002B02D0FB88002B02D1C0
:102F08000123FB770DE1FB68032283F85120FB685E
:102F180000225A65FB68BA681A63FB68FA889A86C1
:102F2800FB68FA88DA86FB6800229A63FB6800224D
:102F38009A87FB680022DA87FB6800225A64FB68DC
:102F480000221A64FB689B68B3F5004F0FD1FB6839
:102F58001B681A68FB681B6822F040021A60FB684D
:102F68001B681A68FB681B6842F480421A60FB6899
:102F78001B681B6803F04003402B07D0FB681B68E5
:102F88001A68FB681B6842F040021A60FB68DB683D
:102F9800B3F5006F4FD1FB685B68002B02D0FB8A4A
:102FA800012B42D1FB681B6B1A88FB681B68DA602F
:102FB800FB681B6B9A1CFB681A63FB68DB8E9BB271
:102FC800013B9AB2FB68DA862FE0FB681B689B68B6
:102FD80003F00203022B12D1FB681B6B1A88FB68F3
:102FE8001B68DA60FB681B6B9A1CFB681A63FB683A
:102FF800DB8E9BB2013B9AB2FB68DA8615E0FEF7DE
:1030080097FF0246BB69D31A3A689A4203D83B68CD
:10301800B3F1FF3F02D13B68002B06D10323FB77B6
:10302800FB68012283F851207BE0FB68DB8E9BB2B2
:10303800002BCAD150E0FB685B68002B02D0FB8AEA
:10304800012B44D1FB681A6BFB681B680C331278A0
:103058001A70FB681B6B5A1CFB681A63FB68DB8ED3
:103068009BB2013B9AB2FB68DA8630E0FB681B68CA
:103078009B6803F00203022B13D1FB681A6BFB68F1
:103088001B680C3312781A70FB681B6B5A1CFB68A0
:103098001A63FB68DB8E9BB2013B9AB2FB68DA8647
:1030A80015E0FEF745FF0246BB69D31A3A689A4213
:1030B80003D83B68B3F1FF3F02D13B68002B06D130
:1030C8000323FB77FB68012283F8512029E0FB6882
:1030D800DB8E9BB2002BC9D1BA693968F86800F059
:1030E800DFFB0346002B02D0FB6820225A65FB68F1
:1030F8009B68002B0AD100233B61FB681B68DB68D7
:103108003B61FB681B689B683B613B69FB685B6DC7
:10311800002B02D00123FB7703E0FB68012283F830
:103128005120FB68002283F85020FB7F1846203787
:10313800BD4680BD80B588B002AFF860B9603B601D
:103148001346FB800023FB75FB6893F85130DBB214
:10315800012B02D00223FB75FBE0FB685B68B3F52B
:10316800827F12D1FB689B68002B0ED1FB6804227A
:1031780083F85120FA883B6800931346BA68B96807
:10318800F86800F0EFF80346E8E0FB6893F8503081
:10319800012B01D10223E1E0FB68012283F85020D2
:1031A800FEF7C6FE3861BB68002B02D0FB88002BF7
:1031B80002D10123FB75CCE0FB68042283F851207F
:1031C800FB6800225A65FB68BA689A63FB68FA884C
:1031D8009A87FB68FA88DA87FB6800221A63FB681B
:1031E80000229A86FB680022DA86FB6800221A64AD
:1031F800FB6800225A64FB689B68B3F5004F0FD147
:10320800FB681B681A68FB681B6822F040021A609A
:10321800FB681B681A68FB681B6822F480421A6006
:10322800FB681B681B6803F04003402B07D0FB6852
:103238001B681A68FB681B6842F040021A60FB684A
:10324800DB68002B6AD132E0FB681B689B6803F0DF
:103258000103012B15D1FB681B6803F10C02FB6805
:103268009B6B1278D2B21A70FB689B6B5A1CFB6876
:103278009A63FB68DB8F9BB2013B9AB2FB68DA87E3
:1032880015E0FEF755FE02463B69D31A3A689A42A2
:1032980003D83B68B3F1FF3F02D13B68002B06D14E
:1032A8000323FB75FB68012283F8512051E0FB687A
:1032B800DB8F9BB2002BC7D135E0FB681B689B688E
:1032C80003F00103012B13D1FB681B68DA68FB6864
:1032D8009B6B92B21A80FB689B6B9A1CFB689A6383
:1032E800FB68DB8F9BB2013B9AB2FB68DA8715E07B
:1032F800FEF71EFE02463B69D31A3A689A4203D883
:103308003B68B3F1FF3F02D13B68002B06D1032392
:10331800FB75FB68012283F851201AE0FB68DB8FFC
:103328009BB2002BC9D13A693968F86800F052FAA3
:103338000346002B02D0FB6820225A65FB685B6DB0
:10334800002B02D00123FB7503E0FB68012283F800
:103358005120FB68002283F85020FB7D184618375F
:10336800BD4680BD80B58CB000AFF860B9607A60AA
:103378007B800123FB62002387F82B30FB6893F8DE
:103388005030012B01D1022398E1FB68012283F818
:103398005020FEF7CDFD7862FB6893F8513087F82E
:1033A8002330FB685B68FB617B887B8397F823305D
:1033B800012B0FD0FB69B3F5827F07D1FB689B68AF
:1033C800002B03D197F82330042B03D0022387F86E
:1033D8002B306DE1BB68002B05D07B68002B02D039
:1033E8007B88002B03D1012387F82B3060E1FB6831
:1033F80093F85130DBB2042B03D0FB68052283F825
:103408005120FB6800225A65FB687A689A63FB685A
:103418007A88DA87FB687A889A87FB68BA681A63B9
:10342800FB687A88DA86FB687A889A86FB680022C5
:103438001A64FB6800225A64FB681B681B6803F067
:103448004003402B07D0FB681B681A68FB681B68A1
:1034580042F040021A60FB68DB68B3F5006F7CD16C
:10346800FB685B68002B02D07B8B012B6AD1FB6861
:103478001B6B1A88FB681B68DA60FB681B6B9A1C5D
:10348800FB681A63FB68DB8E9BB2013B9AB2FB6850
:10349800DA8657E0FB681B689B6803F00203022B7F
:1034A8001BD1FB68DB8E9BB2002B16D0FB6A012B6D
:1034B80013D1FB681B6B1A88FB681B68DA60FB6812
:1034C8001B6B9A1CFB681A63FB68DB8E9BB2013B83
:1034D8009AB2FB68DA860023FB62FB681B689B686C
:1034E80003F00103012B19D1FB68DB8F9BB2002B82
:1034F80014D0FB681B68DA68FB689B6B92B21A8071
:10350800FB689B6B9A1CFB689A63FB68DB8F9BB21A
:10351800013B9AB2FB68DA870123FB62FEF708FDDC
:1035280002467B6AD31ABA6B9A420BD8BB6BB3F1CB
:10353800FF3F07D0032387F82B30FB68012283F86D
:103548005120B5E0FB68DB8E9BB2002BA2D1FB6853
:10355800DB8F9BB2002B9DD180E0FB685B68002B62
:1035680002D07B8B012B6FD1FB681A6BFB681B6841
:103578000C3312781A70FB681B6B5A1CFB681A63B1
:10358800FB68DB8E9BB2013B9AB2FB68DA865BE094
:10359800FB681B689B6803F00203022B1CD1FB68C5
:1035A800DB8E9BB2002B17D0FB6A012B14D1FB6872
:1035B8001A6BFB681B680C3312781A70FB681B6B5C
:1035C8005A1CFB681A63FB68DB8E9BB2013B9AB2FC
:1035D800FB68DA860023FB62FB681B689B6803F0C4
:1035E8000103012B19D1FB68DB8F9BB2002B14D090
:1035F800FB681B68DA68FB689B6BD2B21A70FB68C1
:103608009B6B5A1CFB689A63FB68DB8F9BB2013B80
:103618009AB2FB68DA870123FB62FEF789FC02464F
:103628007B6AD31ABA6B9A4203D8BB6BB3F1FF3FDC
:1036380002D1BB6B002B07D1032387F82B30FB6823
:10364800012283F8512033E0FB68DB8E9BB2002B0C
:103658009ED1FB68DB8F9BB2002B99D17A6AB96B3C
:10366800F86800F01DF90346002B06D0012387F8FF
:103678002B30FB6820225A651AE0FB689B68002BF8
:103688000AD100237B61FB681B68DB687B61FB68F0
:103698001B689B687B617B69FB685B6D002B03D0B3
:1036A800012387F82B3003E0FB68012283F85120BF
:1036B800FB68002283F8502097F82B3018463037E3
:1036C800BD4680BD80B588B000AFF860B9603B608A
:1036D8001346FB71FEF72CFC0246BB6A9B1A3A683C
:1036E8001344FB61FEF724FCB861394B1B685B018E
:1036F8001B0DFA6902FB03F37B6154E03B68B3F1ED
:10370800FF3F50D0FEF714FC0246BB69D31AFA6992
:103718009A4202D9FB69002B3DD1FB681B685A68A5
:10372800FB681B6822F0E0025A60FB685B68B3F52F
:10373800827F11D1FB689B68B3F5004F04D0FB680A
:103748009B68B3F5806F07D1FB681B681A68FB6834
:103758001B6822F040021A60FB689B6AB3F5005FA1
:103768000FD1FB681B681A68FB681B6822F40052BB
:103778001A60FB681B681A68FB681B6842F40052F1
:103788001A60FB68012283F85120FB68002283F845
:103798005020032317E07B69002B01D10023FB6134
:1037A8007B69013B7B61FB681B689A68BB681340B7
:1037B800BA689A420CBF01230023DBB21A46FB7990
:1037C8009A429BD1002318462037BD4680BD00BFD2
:1037D8000000002080B586B002AFF860B9607A605A
:1037E800FB685B68B3F5827F11D1FB689B68B3F512
:1037F800004F04D0FB689B68B3F5806F07D1FB6866
:103808001B681A68FB681B6822F040021A60FB6894
:103818005B68B3F5827F2AD1FB689B68B3F5806F3C
:1038280012D07B680093BB6800228021F868FFF7FC
:1038380049FF0346002B2DD0FB685B6D43F0200247
:10384800FB685A65032326E07B680093BB68002267
:103858000121F868FFF736FF0346002B1AD0FB68F2
:103868005B6D43F02002FB685A65032313E07B6815
:103878000093BB6800220121F868FFF723FF034685
:10388800002B07D0FB685B6D43F02002FB685A658C
:10389800032300E0002318461037BD4680BD000012
:1038A80080B588B002AFF860B9607A607B68009331
:1038B800BB6801220221F868FFF704FF0346002BCA
:1038C80007D0FB685B6D43F02002FB685A65032351
:1038D80032E01B4B1B681B4AA2FB03235B0D4FF412
:1038E8007A7202FB03F37B61FB685B68B3F5827F46
:1038F80012D17B680093BB6800228021F868FFF72B
:10390800E1FE0346002B16D0FB685B6D43F02002F6
:10391800FB685A6503230FE07B69002B0AD07B699B
:10392800013B7B61FB681B689B6803F08003802B6D
:10393800F2D000E000BF002318461837BD4680BD0E
:1039480000000020819F5E1680B582B000AF7860CD
:103958007B68002B01D1012341E07B6893F83D305F
:10396800DBB2002B06D17B68002283F83C20786804
:10397800FEF7F6F97B68022283F83D207B681A6817
:103988007B6804331946104600F002FD7B6801226B
:1039980083F846207B68012283F83E207B68012259
:1039A80083F83F207B68012283F840207B6801224E
:1039B80083F841207B68012283F842207B6801223A
:1039C80083F843207B68012283F844207B68012226
:1039D80083F845207B68012283F83D2000231846A0
:1039E8000837BD4680BD000080B584B000AF786060
:1039F80039603B68002B09D17B6893F83E30DBB215
:103A0800012B14BF01230023DBB222E03B68042B07
:103A180009D17B6893F83F30DBB2012B14BF012337
:103A28000023DBB215E03B68082B09D17B6893F8CB
:103A38004030DBB2012B14BF01230023DBB208E0C6
:103A48007B6893F84130DBB2012B14BF01230023BC
:103A5800DBB2002B01D0012368E03B68002B04D1C6
:103A68007B68022283F83E2013E03B68042B04D1D4
:103A78007B68022283F83F200BE03B68082B04D1C7
:103A88007B68022283F8402003E07B68022283F8E7
:103A980041207B681B6801223968184600F0AEFF98
:103AA8007B681B68234A934207D17B681B685A6C62
:103AB8007B681B6842F400425A647B681B681D4A95
:103AC800934218D07B681B68B3F1804F13D07B6892
:103AD8001B68194A93420ED07B681B68174A9342A9
:103AE80009D07B681B68164A934204D07B681B6820
:103AF800144A934211D17B681B689B6803F0070343
:103B0800FB60FB68062B10D07B681B681A687B6813
:103B18001B6842F001021A6007E07B681B681A689C
:103B28007B681B6842F001021A60002318461037B0
:103B3800BD4680BD00000140000400400008004070
:103B4800000C00400040014080B582B000AF7860B2
:103B58007B68002B01D1012341E07B6893F83D305D
:103B6800DBB2002B06D17B68002283F83C20786802
:103B7800FEF7A6F87B68022283F83D207B681A6866
:103B88007B6804331946104600F002FC7B6801226A
:103B980083F846207B68012283F83E207B68012257
:103BA80083F83F207B68012283F840207B6801224C
:103BB80083F841207B68012283F842207B68012238
:103BC80083F843207B68012283F844207B68012224
:103BD80083F845207B68012283F83D20002318469E
:103BE8000837BD4680BD000080B584B000AF78605E
:103BF80039600023FB733B68002B04D17B6893F882
:103C08003E30DBB213E03B68042B04D17B6893F8A9
:103C18003F30DBB20BE03B68082B04D17B6893F89C
:103C28004030DBB203E07B6893F84130DBB2BB7312
:103C38003B68002B04D17B6893F84230DBB213E079
:103C48003B68042B04D17B6893F84330DBB20BE06C
:103C58003B68082B04D17B6893F84430DBB203E05F
:103C68007B6893F84530DBB27B73BB7B012B02D1B9
:103C78007B7B012B01D00123C2E03B68002B04D1E0
:103C88007B68022283F83E2013E03B68042B04D1B2
:103C98007B68022283F83F200BE03B68082B04D1A5
:103CA8007B68022283F8402003E07B68022283F8C5
:103CB80041203B68002B04D17B68022283F8422014
:103CC80013E03B68042B04D17B68022283F843206D
:103CD8000BE03B68082B04D17B68022283F8442060
:103CE80003E07B68022283F845203B680C2B41D80F
:103CF80001A252F823F000BF353D00087D3D0008C1
:103D08007D3D00087D3D0008473D00087D3D0008D9
:103D18007D3D00087D3D0008593D00087D3D0008B7
:103D28007D3D00087D3D00086B3D00087B681B68F1
:103D3800DA687B681B6842F00202DA601DE07B6883
:103D48001B68DA687B681B6842F00402DA6014E0DA
:103D58007B681B68DA687B681B6842F00802DA60D7
:103D68000BE07B681B68DA687B681B6842F010020E
:103D7800DA6002E00123FB7300BFFB7B002B3ED11E
:103D88007B681B6801223968184600F037FE7B689B
:103D98001B681D4A934218D07B681B68B3F1804F9B
:103DA80013D07B681B68194A93420ED07B681B6846
:103DB800174A934209D07B681B68164A934204D07D
:103DC8007B681B68144A934211D17B681B689B6807
:103DD80003F00703BB60BB68062B10D07B681B6829
:103DE8001A687B681B6842F001021A6007E07B686A
:103DF8001B681A687B681B6842F001021A60FB7B2B
:103E080018461037BD4680BD000001400004004040
:103E180000080040000C00400040014080B584B01C
:103E280000AF78607B681B68DB68FB607B681B6899
:103E38001B69BB60BB6803F00203002B20D0FB6842
:103E480003F00203002B1BD07B681B686FF0020293
:103E58001A617B6801221A777B681B689B6903F0EB
:103E68000303002B03D07868FDF716F805E078689F
:103E780000F070FA786800F077FA7B6800221A7709
:103E8800BB6803F00403002B20D0FB6803F0040395
:103E9800002B1BD07B681B686FF004021A617B68DB
:103EA80002221A777B681B689B6903F44073002B16
:103EB80003D07868FCF7F0FF05E0786800F04AFA6C
:103EC800786800F051FA7B6800221A77BB6803F023
:103ED8000803002B20D0FB6803F00803002B1BD03D
:103EE8007B681B686FF008021A617B6804221A77E6
:103EF8007B681B68DB6903F00303002B03D0786839
:103F0800FCF7CAFF05E0786800F024FA786800F04A
:103F18002BFA7B6800221A77BB6803F01003002B8A
:103F280020D0FB6803F01003002B1BD07B681B68B4
:103F38006FF010021A617B6808221A777B681B6889
:103F4800DB6903F44073002B03D07868FCF7A4FF07
:103F580005E0786800F0FEF9786800F005FA7B68FB
:103F680000221A77BB6803F00103002B0CD0FB6812
:103F780003F00103002B07D07B681B686FF0010278
:103F88001A61786800F0DCF9BB6803F08003002B45
:103F98000CD0FB6803F08003002B07D07B681B68FC
:103FA8006FF080021A61786800F0C6FDBB6803F004
:103FB8004003002B0CD0FB6803F04003002B07D014
:103FC8007B681B686FF040021A61786800F0D6F9C8
:103FD800BB6803F02003002B0CD0FB6803F0200320
:103FE800002B07D07B681B686FF020021A61786885
:103FF80000F098FD00BF1037BD4680BD80B586B083
:1040080000AFF860B9607A600023FB75FB6893F82D
:104018003C30012B01D1022388E0FB68012283F8A0
:104028003C207B68002B1BD1FB681868BB681968AB
:10403800BB685A68BB68DB6800F0C2FBFB681B689A
:104048009A69FB681B6822F00C029A61FB681B687E
:104058009969BB689A68FB681B680A439A6160E0C3
:104068007B68042B1CD1FB681868BB681968BB689F
:104078005A68BB68DB6800F00BFCFB681B689A6930
:10408800FB681B6822F440629A61FB681B689969A7
:10409800BB689B681A02FB681B680A439A6140E088
:1040A8007B68082B1BD1FB681868BB681968BB685C
:1040B8005A68BB68DB6800F028FCFB681B68DA6993
:1040C800FB681B6822F00C02DA61FB681B68D9697F
:1040D800BB689A68FB681B680A43DA6121E07B6861
:1040E8000C2B1CD1FB681868BB681968BB685A6838
:1040F800BB68DB6800F045FCFB681B68DA69FB6895
:104108001B6822F44062DA61FB681B68D969BB68E6
:104118009B681A02FB681B680A43DA6101E0012305
:10412800FB75FB68002283F83C20FB7D1846183796
:10413800BD4680BD80B586B000AFF860B9607A60D2
:104148000023FB75FB6893F83C30012B01D1022357
:10415800AEE0FB68012283F83C207B680C2B00F260
:104168009F8001A252F823F0A5410008A942000847
:10417800A9420008A9420008E5410008A942000830
:10418800A9420008A942000827420008A9420008DD
:10419800A9420008A942000867420008FB681B689A
:1041A800B968184600F080F9FB681B689A69FB68D3
:1041B8001B6842F008029A61FB681B689A69FB68F1
:1041C8001B6822F004029A61FB681B689969BB6846
:1041D8001A69FB681B680A439A6164E0FB681B68FC
:1041E800B968184600F0C6F9FB681B689A69FB684D
:1041F8001B6842F400629A61FB681B689A69FB6855
:104208001B6822F480629A61FB681B689969BB6825
:104218001B691A02FB681B680A439A6143E0FB6842
:104228001B68B968184600F011FAFB681B68DA6960
:10423800FB681B6842F00802DA61FB681B68DA69F0
:10424800FB681B6822F00402DA61FB681B68D96905
:10425800BB681A69FB681B680A43DA6123E0FB68DC
:104268001B68B968184600F05BFAFB681B68DA69D6
:10427800FB681B6842F40062DA61FB681B68DA6954
:10428800FB681B6822F48062DA61FB681B68D969E5
:10429800BB681B691A02FB681B680A43DA6102E003
:1042A8000123FB7500BFFB68002283F83C20FB7DDF
:1042B80018461837BD4680BD80B485B000AF786019
:1042C80039600023FB603B680C2B31D801A252F8FF
:1042D80023F000BF114300083943000839430008A0
:1042E800394300081B4300083943000839430008D4
:1042F80039430008254300083943000839430008BA
:10430800394300082F4300087B681B685B6BFB6020
:104318000FE07B681B689B6BFB600AE07B681B688F
:10432800DB6BFB6005E07B681B681B6CFB6000E0D7
:1043380000BFFB6818461437BD465DF8047B70471C
:1043480080B483B000AF786000BF0C37BD465DF81D
:10435800047B704780B483B000AF786000BF0C372F
:10436800BD465DF8047B704780B483B000AF7860C9
:1043780000BF0C37BD465DF8047B704780B483B03E
:1043880000AF786000BF0C37BD465DF8047B70470E
:1043980080B485B000AF786039607B681B68FB60CB
:1043A8007B683A4A93420FD07B68B3F1804F0BD0B9
:1043B8007B68374A934207D07B68364A934203D0DA
:1043C8007B68354A934208D1FB6823F07003FB6091
:1043D8003B685B68FA681343FB607B682B4A93422F
:1043E8001BD07B68B3F1804F17D07B68284A934273
:1043F80013D07B68274A93420FD07B68264A9342A2
:104408000BD07B68254A934207D07B68244A9342A5
:1044180003D07B68234A934208D1FB6823F4407396
:10442800FB603B68DB68FA681343FB60FB6823F0BA
:1044380080023B685B691343FB607B68FA681A601B
:104448003B689A687B68DA623B681A687B689A629C
:104458007B680E4A934203D13B681A697B681A63EA
:104468007B6801225A617B681B6903F00103012BF9
:1044780005D17B681B6923F001027B681A6100BFC4
:104488001437BD465DF8047B704700BF000001404B
:104498000004004000080040000C004000400140BB
:1044A800004401400048014080B487B000AF786004
:1044B80039607B681B6A7B617B681B6A23F0010299
:1044C8007B681A627B685B683B617B689B69FB6001
:1044D800FB6823F07003FB60FB6823F00303FB60B9
:1044E8003B681B68FA681343FB607B6923F002038F
:1044F8007B613B689B687A6913437B617B681C4AD4
:1045080093420CD17B6923F008037B613B68DB682D
:104518007A6913437B617B6923F004037B617B68C1
:10452800134A934211D13B6923F480733B613B6981
:1045380023F400733B613B685B693A6913433B6151
:104548003B689B693A6913433B617B683A695A60E7
:104558007B68FA689A613B685A687B685A637B682B
:104568007A691A6200BF1C37BD465DF8047B704744
:104578000000014080B487B000AF786039607B6884
:104588001B6A7B617B681B6A23F010027B681A62D6
:104598007B685B683B617B689B69FB60FB6823F415
:1045A800E043FB60FB6823F44073FB603B681B68D7
:1045B8001B02FA681343FB607B6923F020037B61CD
:1045C8003B689B681B017A6913437B617B681E4AC1
:1045D80093420DD17B6923F080037B613B68DB68E4
:1045E8001B017A6913437B617B6923F040037B617C
:1045F8007B68154A934213D13B6923F480633B617E
:104608003B6923F400633B613B685B699B003A6943
:1046180013433B613B689B699B003A6913433B61C9
:104628007B683A695A607B68FA689A613B685A689D
:104638007B689A637B687A691A6200BF1C37BD463B
:104648005DF8047B704700BF0000014080B487B06C
:1046580000AF786039607B681B6A7B617B681B6A86
:1046680023F480727B681A627B685B683B617B68B5
:10467800DB69FB60FB6823F07003FB60FB6823F0D9
:104688000303FB603B681B68FA681343FB607B69A4
:1046980023F400737B613B689B681B027A691343B0
:1046A8007B617B681D4A93420DD17B6923F40063CB
:1046B8007B613B68DB681B027A6913437B617B691A
:1046C80023F480637B617B68144A934213D13B696E
:1046D80023F480533B613B6923F400533B613B68FF
:1046E8005B691B013A6913433B613B689B691B018A
:1046F8003A6913433B617B683A695A607B68FA6898
:10470800DA613B685A687B68DA637B687A691A629F
:1047180000BF1C37BD465DF8047B704700000140B0
:1047280080B487B000AF786039607B681B6A3B61F2
:104738007B681B6A23F480527B681A627B685B681B
:104748007B617B68DB69FB60FB6823F4E043FB600B
:10475800FB6823F44073FB603B681B681B02FA6824
:104768001343FB603B6923F400533B613B689B6840
:104778001B033A6913433B617B68104A934209D192
:104788007B6923F480437B613B685B699B017A69A1
:1047980013437B617B687A695A607B68FA68DA61DF
:1047A8003B685A687B681A647B683A691A6200BF7A
:1047B8001C37BD465DF8047B704700BF0000014010
:1047C80080B487B000AFF860B9607A603B60FB687E
:1047D8001B6A3B61FB681B6A23F00102FB681A62D3
:1047E800FB689B697B61FB68244A934213D0FB6892
:1047F800B3F1804F0FD0FB68214A93420BD0FB687E
:10480800204A934207D0FB681F4A934203D0FB68B3
:104818001E4A934201D1012300E00023002B08D057
:104828007B6923F003037B617A697B6813437B61AF
:1048380003E07B6943F001037B617B6923F0F003AC
:104848007B613B681B01DBB27A6913437B613B697F
:1048580023F00A033B61BB6803F00A033A69134378
:104868003B61FB687A699A61FB683A691A6200BF22
:104878001C37BD465DF8047B704700BF000001404F
:104888000004004000080040000C004000400140C7
:1048980080B487B000AFF860B9607A603B60FB68AD
:1048A8001B6A7B61FB681B6A23F01002FB681A62B3
:1048B800FB689B693B613B6923F440733B617B6800
:1048C8001B023A6913433B613B6923F470433B6124
:1048D8003B681B039BB23A6913433B617B6923F036
:1048E800A0037B61BB681B0103F0A0037A69134333
:1048F8007B61FB683A699A61FB687A691A6200BF52
:104908001C37BD465DF8047B704780B487B000AFA4
:10491800F860B9607A603B60FB681B6A7B61FB6882
:104928001B6A23F48072FB681A62FB68DB693B61CF
:104938003B6923F003033B613A697B6813433B619E
:104948003B6923F0F0033B613B681B01DBB23A692A
:1049580013433B617B6923F420637B61BB681B02C3
:1049680003F420637A6913437B61FB683A69DA616F
:10497800FB687A691A6200BF1C37BD465DF8047B84
:10498800704780B487B000AFF860B9607A603B6068
:10499800FB681B6A7B61FB681B6A23F48052FB6817
:1049A8001A62FB68DB693B613B6923F440733B6136
:1049B8007B681B023A6913433B613B6923F47043EC
:1049C8003B613B681B039BB23A6913433B617B69BC
:1049D80023F420437B61BB681B0303F420437A69FB
:1049E80013437B61FB683A69DA61FB687A691A628A
:1049F80000BF1C37BD465DF8047B704780B487B0A4
:104A080000AFF860B9607A60BB6803F01F03012249
:104A180002FA03F37B61FB681A6A7B69DB431A407D
:104A2800FB681A62FB681A6ABB6803F01F0379689F
:104A380001FA03F31A43FB681A6200BF1C37BD462C
:104A48005DF8047B7047000080B485B000AF7860E3
:104A580039607B6893F83C30012B01D1022350E088
:104A68007B68012283F83C207B68022283F83D2082
:104A78007B681B685B68FB607B681B689B68BB6026
:104A8800FB6823F07003FB603B681B68FA681343FC
:104A9800FB607B681B68FA685A607B681B681C4A65
:104AA800934218D07B681B68B3F1804F13D07B68A2
:104AB8001B68184A93420ED07B681B68164A9342BB
:104AC80009D07B681B68154A934204D07B681B6831
:104AD800134A93420CD1BB6823F08003BB603B6848
:104AE8005B68BA681343BB607B681B68BA689A60E6
:104AF8007B68012283F83D207B68002283F83C20F4
:104B0800002318461437BD465DF8047B704700BF84
:104B1800000001400004004000080040000C004074
:104B28000040014080B483B000AF786000BF0C370C
:104B3800BD465DF8047B704780B483B000AF7860F1
:104B480000BF0C37BD465DF8047B7047024403463E
:104B5800934200D1704703F8011BF9E770B50D4D7A
:104B68000D4C641BA4100026A64209D10B4D0C4C19
:104B780000F018F8641BA4100026A64205D170BDE9
:104B880055F8043B98470136EEE755F8043B98473B
:104B98000136F2E7DC4B0008DC4B0008DC4B000870
:104BA800E04B0008F8B500BFF8BC08BC9E4670474B
:0C4BB800F8B500BFF8BC08BC9E46704772
:104BC40000000000000000000102030406070809B9
:084BD40010BEFF7F010000008C
:044BDC00BD0100080F
:044BE000990100082F
:0C4BE4000024F40010000000010000009C
:0400000508001E19B8
:00000001FF
